:020000040810E2
:10000000103200209D011008A10A1008A10A100852
:10001000A10A1008A10A1008A10A1008A10A1008D4
:10002000A10A1008A10A1008A10A1008A10A1008C4
:10003000A10A1008A10A1008A10A1008A10A1008B4
:10004000A10A1008A10A1008A10A1008A10A1008A4
:10005000A10A1008A10A1008A10A1008A10A100894
:10006000A10A1008A10A1008A10A1008A10A100884
:10007000A10A1008A10A1008A10A1008A10A100874
:10008000A10A1008A10A1008A10A1008A10A100864
:10009000A10A1008A10A1008A10A1008A10A100854
:1000A000A10A1008A10A1008A10A1008A10A100844
:1000B000A10A1008A10A1008A10A1008A10A100834
:1000C000A10A1008A10A1008A10A1008A10A100824
:1000D000A10A1008A10A1008A10A1008A10A100814
:1000E000A10A1008A10A1008A10A1008A10A100804
:1000F000A10A1008A10A1008A10A1008A10A1008F4
:10010000A10A1008A10A1008A10A1008A10A1008E3
:10011000A10A1008A10A1008A10A1008A10A1008D3
:10012000A10A1008A10A1008A10A1008A10A1008C3
:10013000A10A1008A10A1008A10A1008A10A1008B3
:10014000A10A1008A10A1008A10A1008A10A1008A3
:10015000A10A1008A10A1008A10A1008A10A100893
:10016000A10A1008A10A1008A10A1008A10A100883
:10017000A10A1008A10A1008A10A1008A10A100873
:10018000A10A1008A10A1008A10A1008A10A100863
:10019000A10A1008A10A1008A10A100808B500F069
:1001A00043F800F0E9F900F0DDF8412000F0DCF957
:1001B000184B1948DA1C121AC11E22F00302994288
:1001C00088BF0022002105F09BFE422000F0CCF900
:1001D000124B1348DA1C121AC11E22F00302994274
:1001E00088BF00220F4905F07DFE432000F0BCF9D6
:1001F00000F0E4FB442000F0B7F900F0F4FD4620E5
:1002000000F0B2F90D2000F0AFF90A2000F0ACF9CF
:1002100000F072FF102E0020700B0020700B0020E9
:10022000000000204CAD1108484BD3F800280021F5
:1002300042F00102C3F80028C3F80818D3F80028D8
:1002400022F0847222F48032C3F80028404AC3F8B6
:100250000428D3F8002822F48022C3F80028C3F829
:100260000C18D3F8002842F48032C3F80028394A29
:1002700082B00192019A002A61DC019B002B41DDD2
:10028000324B3549D3F8402842F08052C3F8402819
:100290000A6842F440420A60D3F8082822F0F002CB
:1002A000C3F80828D3F8082822F4604242F4004238
:1002B000C3F80828D3F8082822F4E05242F4A052E8
:1002C000C3F80828254AC3F80428D3F8002842F0C8
:1002D0008072C3F80028D3F800289201FBD540F2C1
:1002E0000572C3F8002CD3F8082822F0030242F06C
:1002F0000202C3F80828154AD2F8083803F00C03A4
:10030000082BF9D1114BD3F830286FEA52226FEA4B
:100310004222C3F83028D3F83428C3F83428D3F85D
:1003200040180F4A0A43C3F84028D3F8442842F43F
:10033000A03242F49872C3F8442802B07047D3F850
:100340000028910399D4019A013A92E700300240C3
:100350001030002414821900007000401954400726
:100360008E80125670470000C0F30313082B09D883
:10037000064A00F00F0052F82320012319B103FAB6
:1003800000F0906170471030F9E700BF706D110800
:100390002DE9F843C0F30317082F044600F2C38089
:1003A000624B53F8276000F44023B3F5002F00F0B0
:1003B0000F0500F0A280B3F5402F00F0A080B3F548
:1003C000802F40F09E80C0F30021FFF7CDFF012178
:1003D000EFF3108272B6022940F0958014F4704F4A
:1003E000C4F3033C14D020074BBF24202020A5F1E8
:1003F00008032B4650F806E09B004FF00F0808FA60
:1004000003F82EEA080E0CFA03F343EA0E038351B5
:1004100030684FEA4508032303FA08F320EA030093
:100420006FEA030E01FA08F30343032933606DD02A
:1004300004F44033B3F5803F6AD0B3F5003F0CBFFE
:1004400002200020F36800FA08F00EEA03031843C4
:10045000F060BCF1000F10D123074BBF24202020F7
:10046000A5F108032B4650F806C09B004FF00F097A
:1004700009FA03F32CEA03038351481E012849D8E3
:1004800004F44063B3F5006F46D0B3F5406F45D038
:10049000A3F5806CDCF1000343EB0C03D6F808C035
:1004A00003FA08F30EEA0C0E43EA0E03B3604FF0B2
:1004B000010C012873680CFA05FC31D8A0052FD572
:1004C00043EA0C030129736010D0E3050ED51848E8
:1004D00004F00C04AD00235805F00C050F21A940D1
:1004E00023EA010307FA05F51D43255012F0010F19
:1004F00000D162B60020BDE8F883022168E703213D
:1005000066E7002164E74FF0000C81E7002099E7DF
:10051000012097E70023C1E70223BFE70323BDE7DC
:1005200023EA0C03CEE76FF01500E4E7706D1108C5
:1005300008380140C0B2FFF72BBF0000C0F303131F
:10054000082B0DD8074A52F8233000F00F001A6923
:10055000012303FA00F0104214BF18460020704730
:1005600000207047706D1108024B1A685206FCD5C6
:10057000586070470050004008B54FF480120021C9
:10058000134800F07FFA1348FFF702FF1248FFF705
:10059000FFFE124BDA6822F40052DA601A6922F484
:1005A0007D521A61DA6822F4BB5222F01C02DA6032
:1005B0005A6922F4E06222F001025A6140F26D129F
:1005C0009A60DA6842F4005242F00C02DA6008BD28
:1005D000403802402C8C0900328C09000050004049
:1005E00010B5D0F89040A0F87C10E26801F4F073E8
:1005F00022F4F0721343E360D0F89020536901F0C5
:10060000010123F001031943516110BD10B5EFF34F
:10061000108472B6FFF7E4FF14F0010F00D162B648
:1006200010BD10B5EFF3108472B649B1D0F8902028
:10063000D368526903F4F07302F0010213430B8094
:100640000021FFF7CDFF14F0010F00D162B610BDFD
:100650006FF018007047836ED3F890205068B3F89D
:100660007E2040EA02420A600022A3F87E20C0B247
:10067000704710B50B46806EEFF3108472B6B0F879
:100680007C1043B141F02001FFF7C0FF14F0010FCF
:1006900000D162B610BD21F4907121F00101F3E7A1
:1006A000836ED3F890301868C0F34010704710B5CF
:1006B000806EEFF3108472B681B1D0F89C30B0F840
:1006C0007C1043B941F08001FFF7A0FF14F0010F47
:1006D00000D162B610BD41F0C001F5E7B0F87C1062
:1006E00021F0800189B2EFE7836ED3F8903018686B
:1006F000C0F3C010704738B5856ED5F89C000C4625
:1007000018B195F8A010FFF72FFED5F890305C6077
:1007100038BD10B5846E94F8880000F0A9FA002264
:1007200094F888001146BDE8104000F0CFBD0000ED
:1007300038B5856E064995F888002A4600F0C6FD52
:10074000044618B995F8880000F0A4FA204638BD90
:100750005507100838B514464FF48075D4F890301A
:100760001B689BB25906A4F87E3015D5B4F87C30CE
:1007700003F0C003402B0FD194F8A010D4F89C00D4
:1007800081F00101FFF7F0FDB4F87C1021F0400189
:1007900089B22046FFF73AFFB4F87E309A0619D5A1
:1007A000B4F87C20900615D5204603F003FE012303
:1007B000B4F87E20110607D5B4F87C20120603D5C4
:1007C000204603F0B8FD0123013D01D0002BC5D127
:1007D000002038BD13F00E031EBFD4F890305B68C4
:1007E0000023E5E7836E0A46D3F8903015498B4223
:1007F00017D008D8A1F550518B4216D001F54061B1
:100800008B4216D0704710498B4216D001F580619B
:100810008B4215D10D4820210AB10A46002100F073
:1008200031B90B484FF08041F6E709484FF40031E9
:10083000F2E707484FF48011EEE704481021EBE798
:10084000704700BF0078004000100140443802406B
:100850004038024070B5846E002605463146204679
:1008600084F88060FFF7DDFE31462846FFF7BAFFC7
:10087000D4F89020D36823F4005323F00C03D36002
:10088000D4F89400FFF756FED4F89800FFF752FE14
:10089000D4F89C0018B1BDE87040FFF74BBE70BDA6
:1008A00038B5846E01210546FFF79CFFD4F894000B
:1008B000FFF76EFDD4F89800FFF76AFDD4F89C00AE
:1008C00048B1FFF765FD94F8A010D4F89C0081F0C2
:1008D0000101FFF749FDD4F8902094F883101369C3
:1008E00023F47D5309B143F400531361D4F89020ED
:1008F000D36823F4BE73D360D4F89020536923F4F3
:10090000E06323F001035361A96ED1F88430D1F87C
:1009100090005D08D1F88C30B3FBF5F35D09C26837
:1009200040D11D0903F00F03013342F400425B087C
:10093000C260D1F8900043EA0513836022F4B053FB
:1009400091F88120012A34D143F4C06391F88200E8
:10095000092802D0082802D10AB143F48053D1F803
:100960009020D360D1F8902091F88300136923F48C
:10097000405308B143F400531361D1F890205369F8
:1009800023F440735361D4F89020D36843F40053A8
:1009900043F00C03D36000200123A4F87C0084F80A
:1009A000803038BD03F01F0301335B0822F400429E
:1009B000BEE7022A08BF43F48063C7E738B5084D95
:1009C000002455F8040B10B10021FFF72AFE013472
:1009D000082CF6D1BDE838400248FFF761BF00BFE0
:1009E000C86D110800000020F0B513491348144DDC
:1009F000144E85B003F05EFB0F49134803F05AFB19
:100A00001249684605F08FFA0024012355F8041BAB
:100A100069B1CA785AB95F1C684630338DF809301D
:100A200003F048FB6946304604F04FF93B46013479
:100A3000082CEBD105B0F0BD00000020946D11082A
:100A4000C86D1108B76D1108A16D1108AC6D1108C2
:100A500013B504460DF106010948FFF7E2FD0A2C23
:100A600002D10D20FFF780FDE0B2FFF77DFDBDF85C
:100A700006100348FFF7CAFD204602B010BD00BFB4
:100A80000000002010B5EFF3108472B6036823EA6B
:100A900001010A43026014F0010F00D162B610BDDB
:100AA000EFF305801EF0040F02D0EFF309818D46AD
:100AB0006A4602F12002EFF310832DE9FC4F6946EC
:100AC000A1F14C0222F00702954600F005F9B0E8CA
:100AD000FC4F1EF0040F0CBF80F3088880F30988D8
:100AE00083F310887047000008B5EFF3108372B6E7
:100AF0000148AA2100F032FC186E110808B5EFF386
:100B0000108372B60148A22100F028FC186E11086B
:100B100008B5EFF3108372B601489A2100F01EFC6D
:100B2000186E110808B5EFF3108372B601489221D0
:100B300000F014FC186E11080F2810B510DD1038E5
:100B4000441103EB840303F1604303F561430B603D
:100B500000F01F00012303FA00F01060002010BD18
:100B60000D4B0B60042803D14FF480331360F5E77D
:100B7000052802D14FF40033F8E7062802D14FF4DC
:100B80008023F3E70F2803D1044B0B600123EDE72B
:100B90004FF0FF30E3E700BF24ED00E010E000E09D
:100BA00008B54FF0E0234FF0FF32C3F88021C3F8BF
:100BB0008421C3F88821234AC3F8082D4FF08032DE
:100BC000C3F8182DC3F81C2DC3F8202D5B681E49EF
:100BD0000133DB00013B31D21C4900220B2000F025
:100BE00075FB1B490022032000F070FB194900220D
:100BF000022000F06BFB18490022042000F066FB85
:100C000016490022052000F061FB1549002206204C
:100C100000F05CFB134900220E2000F057FB124944
:100C200000220C2000F052FB00221049104600F078
:100C30004DFBF02383F3118862B608BD41F8042B05
:100C4000C8E700BF0000100800E400E0710D1008C4
:100C5000090D1008250B1008550D1008BD0C1008C3
:100C6000A10D1008110B1008FD0A1008E90A100860
:100C700013B5802301AA69460446FFF75DFF38B922
:100C8000DDE900310F2CD7BF1A6819608A431A605A
:100C900002B010BD13B5002301AA69460446FFF750
:100CA0004BFF38B9DDE900310F2CD7BF1A68196046
:100CB0000A431A6002B010BD7047000008B54FF03B
:100CC000E023D3F8283DEFF3108372B601486A2180
:100CD00000F044FB296E110870B50A4D2B680646DA
:100CE0000C460BB929601C463046FFF7E5FF296822
:100CF000304600F00BFB14B900232C682B60204613
:100D000070BD00BF7015002038B54FF0E0230E4DC8
:100D1000D3F82C4DD3F8283D4B6C9C1EAC420BD322
:100D20000A4DAC4208D233F8023CB3F55F4F03D111
:100D3000BDE8384000F01CB8EFF3108372B60448E9
:100D4000AF2100F00BFB00BF0000100844AD1108FC
:100D5000406E110808B54FF0E023D3F8283DEFF3BB
:100D6000108372B60148662100F0F8FA586E110837
:100D7000CA6A012A08B508D0022A0AD01AB9086B33
:100D80004C2205F0AFF8002008BD0A6B034B1A6037
:100D9000F9E70A6B11604A6BF8E700BF7015002095
:100DA00008B54FF0E023D3F8283DEFF3108372B677
:100DB0000148722100F0D2FA6F6E110808B500F0F8
:100DC00011F8BDE80840FFF70FBE0000044B1B6898
:100DD0000360C3F1005303F540330B60704700BF5D
:100DE0006C6D11087047704700F000B813B52548C6
:100DF00003F0ACFF002300931846234A23490CF06C
:100E000049FE031E04DA214A2149032005F0D4F8E3
:100E100000F074F8041E07DA1E492246032005F08C
:100E2000CBF8204602B010BD1B49062005F0C4F8DF
:100E30001A4803F08BFF00F0E9F8021E03DA1849A4
:100E4000032005F0B9F800F093F8021E03DA154903
:100E5000032005F0B1F800F0A9F8041E02DA1249E7
:100E60002246DBE71149062005F0A6F800F0EAF873
:100E7000041E02DA0E492246D0E70E49062005F08C
:100E80009BF8CEE7886E1108966E11089D6E1108CA
:100E9000A36E1108C46E1108EA6E1108036F1108E1
:100EA0001F6F1108486F11086B6F11088E6F1108C2
:100EB000A56F1108C86F110808B5044B90F83420CD
:100EC00053F82200FFF750FA002008BD18701108EF
:100ED00010B5054B90F8342053F822000C46FFF76C
:100EE0002DFB2070002010BD1870110810B51A20BD
:100EF0000C46FFF723FB2070002010BD17482DE99A
:100F0000F843174B036300242146047080F83440F3
:100F100003F072FC1A20FFF73BFA124D124FDFF874
:100F20004C804FF0030985F83440013421462846AF
:100F300085F80090C5F8308003F05EFC57F8046B2C
:100F400000213046FFF710FA3046FFF721FA072C50
:100F500005F13805E7D10020BDE8F88374150020BD
:100F600034701108AC150020187011084870110871
:100F700008B5012006F0C4FD014610B96FF012005B
:100F800008BD084802F0B8FA0028F9DB022006F094
:100F9000B7FD01460028F1D0034802F0ADFA00EA9F
:100FA000E070EDE75C7011086670110870B5114EC5
:100FB0003578EDB91048FFF7EBF901220F491046DB
:100FC00005F014FF014638B90D49032004F0F4FF81
:100FD0006FF01204204670BD0A4801F06DFF041E38
:100FE00004DA0949032004F0E7FFF3E70123337033
:100FF0000024EFE73417002020000C00C87011080F
:101000007070110894701108A370110807B50023BF
:101010000320CDE9003305F037FC40B90320074930
:1010200004F0CAFF6FF0120003B05DF804FB0090FB
:101030006946034802F0C0FCF6E700BFC97011081A
:10104000F770110838B5234D2C78002C3FD10D20B6
:1010500006F08EF9014610B96FF0120038BD1E4837
:1010600003F0C4FA0028F9DB1C49062004F0A4FFB1
:10107000052006F07DF901460028EDD0184803F060
:10108000B5FA0028EADB1749062004F095FF042092
:1010900006F06EF901460028DED0134803F0A6FAE8
:1010A0000028DBDB1149062004F086FF032006F050
:1010B0005FF901460028CFD00D4803F097FA0028C9
:1010C000CCDB0C49062004F077FF01232B700020B5
:1010D000C4E700BF35170020007111080A7111081C
:1010E0001C7111082671110838711108427111081C
:1010F000547111085E711108454C464D83B50123AA
:101100009422002120462B7004F0FAFE032323775B
:10111000414B4249424FC4E9053304F174060623AA
:10112000E3831F22304604F006FF3E4A217F3E60E3
:1011300002EBC1031B791B0745BF236C52F831201A
:1011400052F831309B18002262601A682260002A2F
:1011500058D1C3E90044344B344E1C6001A902232A
:1011600068462B70FFF732FEDDE9000104F0C8FF8E
:10117000042333603368012B47DD3068800004F0BE
:10118000E5FF2B4B186033680460A17F204800F016
:10119000CFFDA3681E489B6ADF6006F097FD1C48E0
:1011A00000F0A0FC1A4800F0FFFDA36805241C73A2
:1011B000204B00221A6003232B7000F06BF90BF018
:1011C000FDF900F075F800F0C9FC00F0E5FB00F057
:1011D000CDF900F033F900F041F90FF0A9F8FFF76D
:1011E000EDFD01F0B2FC042309482B7000F04EFE27
:1011F0002C7000F03BF806232B7000F05BF905F033
:10120000A3FBFCE754601C60A5E733685B00B0E714
:1012100040170020E4170020F91010087071110821
:10122000381700207C711108FC170020E0170020FF
:10123000F0170020DC17002010B586B000240594BC
:10124000FFF7D2FD05AB0193064B009302944FF4D8
:10125000006322466421044800F0E3F9204606B00A
:1012600010BD00BFD97D1008C47111081FB50C490D
:101270000C48012200F0CAFC00F07AFC0A4B0193F2
:1012800000244FF400630390009302942346F0225D
:101290000221064800F09AF9204604B010BD00BFB4
:1012A000CD711108DF90110839121008CF711108A3
:1012B000044A0549002342F833100133672BFAD161
:1012C000FFF76EBC0818002049131008662870B597
:1012D00005460C4613D8EFF3108672B619B9FFF71E
:1012E000C7FC2246074C084840F8354000EBC500D3
:1012F000426016F0010F00D162B6002070BD6FF0A1
:101300001500FBE74913100808180020662808B5E7
:101310000CD8094A52F830305BB102EBC002526877
:101320009847064B1A68064B1A6008BD0022054B09
:10133000F6E71A46FBE700BF08180020F417002064
:10134000FC1700204913100808B5EFF3108372B69C
:101350000148362100F002F8DA7111081C4E07B579
:101360000D46044603F05EF8316841BB194B1B681B
:101370001B6823B3012000F035F8336813B3164B14
:101380001B68164A16497433CDE9005300202346E2
:1013900004F012FE03F046F82946204606F0D4FB7E
:1013A00003F040F833681BB90A4B1B681B685BB934
:1013B000EFF3108372B6FA2006F072FCFBE700210F
:1013C0000846D8E7034BDBE7012004F0F6FB00BF3B
:1013D00070150020F4170020FC170020257211085A
:1013E000F2711108F8B504460D46EFF3108672B697
:1013F000074B186820B916F0010F00D162B6F8BD8E
:10140000D0E900372A46214698473846F2E700BF20
:10141000401B002038B504464FF4B0700D4604F070
:1014200085FE50B100F5B07223680572C0E9003442
:10143000586020602C309042F6D138BD08B5054880
:101440000021FFF7E7FFBDE8084003480221FFF74E
:10145000E1BF00BF340300203C03002038B54FF447
:10146000C07004F063FE78B1094A116800F5C075D8
:10147000034603F13004A542C3E900124B6019464C
:1014800003D100F5A870106038BD2346F1E700BF16
:1014900044030020054B1B682BB1054A126812B9A2
:1014A0001A8C01321A840020704700BFF417002004
:1014B0007015002010B5104B1A6892B10F4B1B68C5
:1014C0007BB9EFF3108472B6B2F92030002B0ADC3E
:1014D000002313840A4B1B685BB914F0010F00D181
:1014E00062B6002010BD013B9BB21384002BF4D1E7
:1014F000EEE706F069FBF0E7F41700207015002016
:10150000E8170020F8B50446182048430D46174652
:1015100004F00CFE68B1002301469C4622680F755A
:101520000E4641F818CB2AB9266001339D42666009
:10153000F4DCF8BD62681660F7E7F8B50D01044603
:101540002846164604F0F2FD60B105440346002229
:1015500027681E73194643F8102B27B92160AB4248
:101560006160F5D1F8BD67683960F8E7F8B51248F1
:10157000124B134F134E144D002422460421C3E98D
:101580000044C0E90044C7E90044C6E90044C5E995
:101590000044FFF7B7FF022208213846FFF7B2FFE9
:1015A000224604213046FFF7C8FF28460222BDE844
:1015B000F8400821FFF7C1BF4C1B0020441B00204E
:1015C000541B0020641B00205C1B00202DE9FF4100
:1015D00005469420884616461F4604F0B7FD04468B
:1015E000E0B10D9BA0F81E8003930C9B02930B9B14
:1015F00001930A9B009329463B46324600F02AF8A5
:10160000051E06DA204604F089FD284604B0BDE830
:10161000F0812046E56800F085F9F6E76FF00B05EC
:10162000F3E7F0B585B004460C980D4616461F4604
:1016300008B900F09DFA0B9B02930A9B0390CDE939
:1016400000732A46334600212046FFF7BFFF05B04E
:10165000F0BD00002DE9F347867FDDF828A088461D
:101660003146054691461F4600F062FB041E40DBF2
:101670000D99A86800F084FA041E06F0030611DB39
:10168000284600F01FFC041E0CDB87B15246394689
:10169000284606F0F1FA041E05DB284600F022FA7F
:1016A000041E13DA57B1284600F094FB21E03246BD
:1016B0005146284606F049FA041EEEDAAB6B002BC1
:1016C000F1D03146284606F097FAECE70B9B0B4A1F
:1016D00000964946284600F0ADF8041EE2DB0C9A5D
:1016E0004146284600F0B4F8041EDBDB284600F033
:1016F0005BFB204602B0BDE8F08700BF551910081B
:101700002DE9F74F04460D4600921F46EFF310886F
:1017100072B6DFF81091DFF810A1D9F80000DAF8FE
:1017200000C0DFF808B101300022DBF800309A4237
:1017300010DBDBF80000C00004F008FD03460028C1
:101740004AD118F0010F00D162B66FF00B0003B060
:10175000BDE8F08FDBF800300128B8BF0120013B65
:1017600003400CEB830E5CF82360002E31D1CEF8E1
:101770000040E060C9F8000018F0010F00D162B627
:10178000009B9DF83020C4E90537E38B02F003028B
:1017900023F063031343EDB2E38304F144023146C3
:1017A00025746574032000F075FC2046267706F04A
:1017B0008DFAFFF76FFE1E4B66601A6822601A688A
:1017C00062BBC3E9004404232377FFF773FE0020C4
:1017D000BDE701300132A8E7DBF8002013495200D1
:1017E000CBF800204FF0000C0A68DAF8000002EB9A
:1017F000D272BCEB620F06DB019304F08FFC019BFD
:10180000CAF8003089E750F82C000A68C668013A27
:1018100032400CF1010C43F82200E5E754601C60F3
:10182000D1E700BFDC170020F0170020E0170020F0
:10183000D417002010B49DF80440019410BCFFF7A9
:101840005FBF13B501240094FFF75AFF02B010BD2B
:10185000334B2DE9F74F002914BF8A469A4651466B
:10186000074615467430202204F065FB504604F00C
:101870007EFB461C4DBB2C46023406EB84013846E9
:1018800006F0CCF94FEA84080646002845D000EB64
:101890000809C0F80090504604F069FB5146044620
:1018A000484604F040FB0134A8F108084C44B34614
:1018B000043DB044C3451CD1002049F8040CBB686A
:1018C0009B6ADE6003B0BDE8F08F002440F201188F
:1018D00055F824000028CFD004F049FB7B6B013081
:1018E00006449E4216D201344445F1D16FF0060001
:1018F000E8E74BF8044F55F8041F0191084604F03F
:1019000036FB8246019920460AF1010A04F00BFBDE
:101910005444CFE76FF02300D4E76FF00B00D1E71A
:101920002D72110870B50446EFF3108572B6084B9E
:101930001E6800F041FB204600F0F6FA18B131466F
:10194000204606F087F915F0010F00D162B670BD90
:10195000F417002010B50F4B1B689A68926AD26882
:10196000012040F2011452F8201049B99C69DB8B28
:1019700003F00303022B08D11146A04704F01DF920
:101980000130A042EFD10120F8E70146204603F0E4
:101990001AF9F8E7F41700200C4A0D4B002030B577
:1019A000082110600124506015685C7118604DB901
:1019B00013600139536003F14803F5D1054B1960F9
:1019C000596030BD55682B60F3E700BF741B0020E1
:1019D0007C1B00206C1B002070B50446EFF31085C3
:1019E00072B6084B186820B915F0010F00D162B625
:1019F00070BD83680668A34201D100F017F8304635
:101A0000F1E700BF6C1B002060B1EFF3108272B6EB
:101A1000054B1B680BB18342FBD112F0010F00D1C3
:101A200062B61846704700BF6C1B002010B5FFF768
:101A3000EBFF00F00BF8041E06DA03F09FF8644297
:101A400004604FF0FF3010BD0020FCE7F8B50446FD
:101A500000283FD08379012B03D9013B83710120FA
:101A6000F8BD103000F04CF8EFF3108772B61B4E43
:101A7000356845B1AC4217D12368336073689C4226
:101A800001D100237360607910F001051AD00023A2
:101A90002360134B1A6892B91C605C6017F0010F49
:101AA00000D162B60020DBE72B689C4203D13146AF
:101AB000284603F077F82D68002DF5D1E3E75A6842
:101AC0001460EAE717F0010F00D162B6204604F077
:101AD00025FBE7E76FF01500C2E700BF6C1B002095
:101AE000741B002010B51821044606F097F820B1A9
:101AF000A3689B6A0360002010BD6FF00B00FBE73A
:101B000038B50446EFF3108572B6F8B18368EBB1CF
:101B1000114B1B680020E3B1A34210D123681BB115
:101B2000DA68E1680A44DA6060B10B4903F03AF818
:101B30000020A06015F0010F00D162B638BD184634
:101B40001B68E8E7044803F023F8F1E76FF015009D
:101B5000F0E71B68FFDE00BFCC1D002004F0D6BEFE
:101B6000024A136801331360704700BFC41D002090
:101B7000024B1B689B68D86B704700BFF4170020AE
:101B80002DE9F8430D460746FFF784FCDDB9FFF762
:101B900091FC2846BDE8F883013455F824604FEAEB
:101BA0008408002EF8D15CB1601C800004F0BEFAFD
:101BB000064600B3002340F8083004F1FF3824B98A
:101BC0000025FE63E3E70024E7E755F82890484640
:101BD00004F0CDF9013004F0A9FA46F8280080B9E4
:101BE00004F18044013C06EB840454F8040F28B946
:101BF000304604F093FA6FF00B05E2E704F08EFA3A
:101C0000F3E7494604F08FF94446D6E72DE9F84357
:101C10000E461446054600285DD009B10B782BB955
:101C2000A4B12846BDE8F84300F05CB8FFF732FCE9
:101C30002A4B1B689F68FB6B73B12946384600F03E
:101C4000F6FC011E08DB24B9FFF734FC2046BDE892
:101C5000F883384600F002FD284604F088F904466F
:101C6000304604F084F92044023004F05FFA8046E4
:101C700030B3D7F83C90B9F1000F2AD1082004F016
:101C800055FAD0B14C4600EB840340F82480002480
:101C90005C601349F86333462A46404603F027F850
:101CA000D2E7013459F82430002BFAD1A11C890065
:101CB000484604F043FA0028E5D1404604F02EFAE5
:101CC000FFF7F8FB0C2402F059FF04604FF0FF34DB
:101CD000BCE70024E6E71624F5E700BFF417002070
:101CE0003672110838B5114B1B6804469D6828B13F
:101CF00003781BB13D2104F00BF930B102F03EFF37
:101D0000162303604FF0FF3038BDFFF7C3FB45B12A
:101D10002146284600F08BFC011E02DB284600F01D
:101D20009DFCFFF7C7FB0020EEE700BFF417002083
:101D300070B506464FF4E47004F008FA044678B330
:101D4000102004F0F3F9206138B30423A373204674
:101D500000F031FC051E06DA206904F0DFF92046A8
:101D600004F0DCF912E004F14400B4600AF071FC04
:101D70002046143403F0A2FE01220021204602F086
:101D800034FF002804DA02F0F9FE0025284670BD71
:101D90000121204602F05DFFF7E76FF00B05DEE75B
:101DA0006FF00B05F2E700008368C26819690A60EA
:101DB0005A6001225A73EFF3108172B6044A106818
:101DC0001860136011F0010F00D162B6704700BFB8
:101DD000C81D0020F8B584680646002C52D0C068A3
:101DE00000236FF04047657BAB4220DB002D47D1DD
:101DF000204600F0FAFB204600F01AFA204600F0D8
:101E000075F804F144000AF036FC204603F079FE30
:101E1000204600F0F8FBEFF3108072B61A490B6809
:101E20001BB39C421A681AD1E5B90A601BE022690B
:101E300052F82320904210D1EFF3108572B6627BE6
:101E400021693A4451F8222041F82320627B013A6B
:101E5000627315F0010F00D162B60133C3E71D466E
:101E60001346DDE72A6000221A6010F0010F00D14E
:101E700062B6206908B104F051F9204604F04EF929
:101E80000023B360F8BD00BFC81D002038B5032192
:101E900005460B480BF0A1F8041E0BD101210AF0F6
:101EA00004FD204602210AF000FD2846BDE8384026
:101EB00000F008BC01DD0AF055FD6FF0160038BDDA
:101EC000946D110810B5084B81681B68044698682A
:101ED000443144300AF084FC002804DB2046BDE88D
:101EE000104000F0EFBB10BDF417002038B50446D9
:101EF000256A4DB904F1140000F0BBF8002811DA8E
:101F0000BDE8384002F03ABE284650F8183B23623C
:101F100000F0A8F805F10C0000F0A4F8284604F041
:101F2000FDF8E5E738BD000010B50F4B1B68B3F9AD
:101F30002020002A04460ADD1A7C037C9A4206D23D
:101F40000A4900F015F801232377002010BD064947
:101F5000204600F00DF8022320B1032222772268E8
:101F60001377F3E72377F1E7F4170020E817002051
:101F700010B50B68027CB3B11C7C944206D25A683F
:101F800062B9C0E900325860086013E01B68F2E7EC
:101F9000C0E900321060486000200CE0C0E9003267
:101FA00010605860F8E74A68002AF1D1C0E90033B0
:101FB000C1E90000012010BDD0E9003230B5F2B90E
:101FC000057F114951F8354001EBC5010979090731
:101FD00044BF016C641823609BB9047F0A4B53F81B
:101FE000341003EBC4031B791B0744BF036CC918EF
:101FF0004A600023C0E900330364037730BD1360F7
:10200000EAE75A60F5E700BF7C71110838B50D4664
:10201000044600B3C068FFF7DFFCE2687AB1EFF373
:10202000108172B60D4B1B68013B13400C4A1268BD
:10203000002042F8230011F0010F00D162B6A36B1B
:102040001BB12946204605F0D7FD2046FFF7C2FE0A
:10205000204604F063F8002038BD00BFE0170020E0
:10206000F017002003881B045CBF012303800020BD
:10207000704708B530B902F081FD162303604FF0B8
:10208000FF3008BD03881B045CBF012303800020D0
:10209000F7E70000F8B5164B17461D6806460C46D4
:1020A000FFF7F8F90FB16B6C3B609CB1EFF3108256
:1020B00072B6022E12D0032E15D0012E15D16B6CE4
:1020C00021680B436B64002412F0010F00D162B64B
:1020D00000F010F8FFF7EEF92046F8BD21686B6CB0
:1020E00023EA0103EEE72368ECE76FF01504EBE762
:1020F000F417002037B5174B1D68FFF7CBF92846BA
:102100006C6C00F09EFCE4430440019424B9FFF79A
:10211000D1F9204603B030BD01A800F061F8431C9E
:10212000044610D0014601A802F0B9FD2146284618
:1021300000F012F8044630B1011D284600F08CF87A
:10214000204600F027F8019B002BE5D1FFF7B2F9FC
:102150000120DFE7F417002038B58368EFF310851E
:1021600072B65C6B002074B122798A4206D103F109
:10217000340130B9084602F00BFD04E02046246823
:10218000F1E702F00FFD15F0010F00D162B6204615
:1021900038BD0000027B03466AB9EFF3108172B6C6
:1021A00002600D4A106878B91360536011F0010F96
:1021B00000D162B67047022A09D1EFF3108172B6DE
:1021C00000220260054AEDE750680360EDE7012A4E
:1021D00001D103F0A3BF7047641B00205C1B0020EB
:1021E00038B5054601242146284602F065FD20B990
:1021F0000134202CF7D14FF0FF34204638BD38B5DC
:10220000044600F14C05284602F0C2FC50B904F126
:102210005405284602F0BCFC38B94FF0FF32C4E93F
:10222000112038BD00F05AFCEDE700F057FCF0E754
:1022300038B5044600F12C05284602F0A9FC28B95F
:102240003434204602F0A4FC18B938BD00F040FB3D
:10225000F2E7FFF79FFFF4E72DE9F8430D46097811
:102260000446002938D0894B4430D3F8008002F06E
:1022700023FD0128074640F08280EFF3108672B6F6
:10228000237F062B2CD1297804F1480002F014FD9D
:1022900030B32B68E3656B6823660023A364E36AAD
:1022A0001BB104F12400FFF72BFCD4E90032AAB9DA
:1022B00077490B6003B9764B5A600023C4E90033B9
:1022C0002046FFF731FE18B14146204605F0C2FC1A
:1022D00016F0010F00D162B60026B4E01360E9E702
:1022E00016F0010F00D162B6A4682978EFF31082CE
:1022F00072B6636B13B11879884209D112F0010FDD
:1023000000D162B633B12A685A606A689A60E3E71E
:102310001B68EFE75F4B1B68D3B15F4802F038FCE6
:1023200020B95E4802F034FC0028D5D02B68436009
:102330006B688360EFF3108372B600220260626BF9
:10234000D2B96063A06313F0010F00D162B6C3E796
:10235000EFF3108672B6504802F01AFC16F0010F27
:1023600000D162B60028E1D1102003F0DFFE002882
:10237000B2D001230373D9E7A26B1060E2E7FFF745
:1023800089F82978A06800F072FB064600282AD058
:102390004068002826D000F07BFB0346002858D078
:1023A00072684260B1688160F268920604D428784D
:1023B000012282400A439A602A68DA606A681A61D8
:1023C000EFF3108672B600221A60E26C002A3DD14B
:1023D000E36433492365204605F0A8FC16F0010F9D
:1023E00000D162B60026FFF765F8EFF3108972B6E8
:1023F000237F062B1ED12B68E3656B6823660023C1
:10240000A364E36A1BB104F12400FFF779FBD4E96C
:1024100000320ABB1E490B6003B91D4B5A600023F2
:10242000C4E900332046FFF77FFD18B1414620463E
:1024300005F010FC19F0010F00D162B6002F0DD08D
:1024400001DA6FF015063046BDE8F883226D13609F
:10245000BFE76FF00B06C6E71360DDE7EFF310850B
:1024600072B6237F052B03D10421204600F00AFA1F
:10247000237F073B012B03D80421204600F0ACF951
:1024800015F0010F00D162B6DDE700BFF4170020A0
:102490000018002070150020641B00205C1B002029
:1024A000CD24100838B505460C4600F0CBF930B104
:1024B000806840B12146BDE8384000F063B9284645
:1024C00000F0ECF8F5E76FF0020038BD2DE9F74FAA
:1024D000044602F053FBB4F922700368019304F13F
:1024E0004C0904F1540AEFF3108872B6E38B13F42D
:1024F000007B1FFA88F60BD016F0010F00D162B6F0
:1025000002F03CFB019B0360678403B0BDE8F08FE1
:10251000484602F03DFB05460028EDD0E38B43F42E
:102520000073E383C0F800B0636D002B35D16065A4
:10253000A565D4F844B0AE684BEA0606666418F0A8
:10254000010F00D162B600226B68287B05F10C01F7
:102550009847EFF3108872B6E28B616C22F4007238
:10256000E2834E4081EA0B02164086EA0B0666645F
:10257000666D46B1AE4213D12A686265A26DAA4269
:1025800001D10022A26518F0010F00D162B6FFF759
:10259000B1FD284600F0A2FAA5E7A36D1860C7E7D1
:1025A0003268AA4203D15146304602F0FBFA36683F
:1025B000002EF5D1E7E738B50546402003F0C6FD0B
:1025C000044678B10122002102F00FFB002804DA52
:1025D00002F0D4FAAC62002038BD0121204602F09E
:1025E00038FBF7E76FF00B00F6E710B5846A20467A
:1025F000FFF73FFD002801DA02F0C0FA2046BDE8EF
:10260000104003F08BBD38B5C36B04466BB9002393
:10261000E36338BD03F082FDE36B585904350028AD
:10262000F8D1184603F07AFDF1E70025F4E770B51C
:10263000C46B84B1002054F8203063B14A1E013BC2
:1026400012F8016F13F8015FAE42F9D00EB93D2DBB
:1026500003D00130EFE76FF0010070BD70B5C36BC0
:10266000054653F821000C4603F058FDA300EA6B21
:102670000433D15842F82410E86BC658214601347F
:10268000002EF3D1012C03D103F048FDEE6370BDA1
:102690000231890003F052FDE863F8E70346EFF3E7
:1026A000108272B60649086810B14168994204D197
:1026B00012F0010F00D162B670470068F4E700BF66
:1026C000C81D002010B5002304460246012118460B
:1026D0000BF033F922460023062101200BF02DF9DF
:1026E00000232246062102200BF027F9002010BD0E
:1026F00070B50C4600F0A6F8064610B9002528462D
:1027000070BD636803B96060236806F148001978FA
:1027100002F0D2FA0128054623D0236806F14400CE
:10272000197802F0C9FA0028E8D12369002BE5D115
:10273000E368B342E2D0A36803B9A6602368B06837
:10274000197800F094F90028D8D021683046FFF7B6
:1027500083FD051ED3DBE5682661003D18BF01251A
:10276000CDE7E368002BD8D121683046FFF774FD30
:10277000002804DB2369E660002BC0D1CDE70546C5
:10278000BDE7000030B587B000230446CDE9023331
:10279000CDE904330D460191FEF77CFE20460D493C
:1027A00001AA00F0C1F9041E0BDB049B4BB9059B89
:1027B0003BB9039808B9029840B12946FFF74CFD90
:1027C0000446FEF777FE204607B030BD6FF00904DF
:1027D000F7E700BFF126100870B5027F184B072AF3
:1027E0001E68036C04460D461BD15A8A013A5A8270
:1027F000D0E9002088B91A608AB958600023C4E97A
:102800000033236465842046FFF78EFBB0B1314668
:102810002046BDE8704005F01DBA0260ECE750604C
:10282000ECE71A8A013A1A82D0E9002020B99A60AE
:10283000002AF4D1D860E1E70260F9E770BD00BF7B
:10284000F41700200346EFF3108172B60B4A1068AC
:1028500060B1002B0FDB0A4A1268013A1A4050F8A7
:10286000220018B1C2689A4218BF002011F0010F6F
:1028700000D162B670470020F8E700BFF0170020D3
:10288000E017002070B5114B0446006C1E680388E9
:1028900001331BB20380D4E900320D468AB943608C
:1028A0008BB982600023C4E9003323646584204629
:1028B000FFF73AFB48B131462046BDE8704005F0CD
:1028C000C9B91360ECE75A60ECE770BDF41700205B
:1028D000EFF3108272B600230360064B196831B91A
:1028E0001860586012F0010F00D162B67047596845
:1028F0000860F6E7441B00202DE9F84F474B1B68A2
:102900001F289D6880460F46164600F282800146C9
:10291000284600F0ACF8044636B1E8B143683360AD
:1029200083687360C368B36027B3D7F80090B9F1C8
:10293000000F22D1002C6FD0EE6AC6B1A6420FD094
:102940002C353368A34203D12946304602F02AF9D8
:102950003668002EF5D10AE0C6E90000B060E3E772
:102960002368EB622B6BA34201D1C5F8309020465F
:10297000FFF7AEFF0020BDE8F88FBCB9EFF310867B
:1029800072B6274802F004F9044616F0010F00D190
:1029900062B6DFF88CA000267CB1002384F810809A
:1029A0002360EB6A002B31D1EC622C63C4F80490F5
:1029B0007B68A360BB68E360DCE7502003F0B6FBF4
:1029C000A0B1EFF3108172B600F15004DAF80030D4
:1029D000024640F8146BABB9CAF80020A042CAF80E
:1029E0000420F3D111F0010F00D162B6EFF3108B88
:1029F00072B6504602F0CCF804461BF0010F00D12D
:102A000062B6C9E7DAF804301A60E7E72B6B1C609E
:102A1000CBE76FF01500AEE72046ACE7F4170020D7
:102A2000441B002010B50023FFF766FF041E06DAE2
:102A300002F0A4F8644204604FF0FF3010BD0020A3
:102A4000FCE737B5002283680192EFF3108572B678
:102A50005C6B34B915F0010F00D162B6019803B078
:102A600030BD217901A802F001F92468F1E738B5F9
:102A70000D46044640B1FEF70DFDE46A14B1237C17
:102A8000AB4203D1FEF716FD204638BD2468F5E7BA
:102A900010B50F4B1B6843B10E4802F079F8A8B986
:102AA000BDE810400C4802F073B8EFF3108472B622
:102AB000084802F06DF814F0010F00D162B628B991
:102AC000182003F033FB08B10123037510BD00BFCC
:102AD000701500204C1B0020541B0020027D034673
:102AE0006AB9EFF3108172B602600D4A106878B9C6
:102AF0001360536011F0010F00D162B67047022AD3
:102B000009D1EFF3108172B600220260054AEDE7A9
:102B100050680360EDE7012A01D103F0FFBA704766
:102B20004C1B0020541B0020F8B5447B05460E4684
:102B30001746013C01D2002006E02B69394653F8C4
:102B40002400B0470028F4D0F8BD08B501F076FCA9
:102B500000F0C6FDBDE8084000F0E4BD012380F8A8
:102B60005C300020704710B440F605348068A14204
:102B7000806907D040F60634A14211D0036810BC2A
:102B80005B691847EFF3108372B690F8312080F834
:102B9000302013F0010F00D162B6002010BC704746
:102BA000EFF3108272B690F8313090F83000181AB6
:102BB00083B212F0010F00D162B60028EEDA03F101
:102BC000080000B2EAE710B583689869EFF3108453
:102BD00072B622B34B68DB0727D5036E5BB1436E39
:102BE00043B100238B616FF00F0014F0010F00D18F
:102BF00062B610BD0123183340F8231000EB8303A5
:102C00008B6190F8302090F831309A4201D1002049
:102C1000EBE70122022160300AF002FAF7E78B6944
:102C2000002BF4D01A608A61F1E76FF02200DCE734
:102C3000554B5343B3F1333F2DE9F3478046894663
:102C400016464BD991074BD0504B5343B3F1553FE8
:102C500048D9F20748D5012E0CBF01250525B542FC
:102C600000F28F80D8F808309C69EFF3108772B6B5
:102C700004F1240A94F8302094F831309A4235D087
:102C8000002209F101014FF0050C4FF0330E904680
:102C900010462A44B24294F830902FD84FEA890364
:102CA0004B44012D01F1FF3023443FD1D3F83330A1
:102CB0001B1601F8013C94F830300133DBB2072BCE
:102CC00094BF84F8303084F8308094F8300094F861
:102CD000313098422944DBD110460FE00525BEE78C
:102CE0000425BCE70325BAE70225B8E794F85C3071
:102CF0005BB1002384F85C306FF0040017F0010F23
:102D000000D162B602B0BDE8F087D8F800305B06AB
:102D100034D4637A0133637250460EF0CBFC637A8D
:102D2000002803F1FF336372A4DAE7E7022D04D130
:102D3000D3F833301B140380BDE7032D93F8320022
:102D400006D101F8010CD3F833301B140B80B2E725
:102D5000042D0CD1D3F8333001F8010C1B12019370
:102D6000BDF804009DF8063008808B70A3E71CFBBB
:102D700009E301F8010CE3580B609CE76FF00A00CF
:102D8000BCE70020BEE700BFCDCCCCCCABAAAAAA42
:102D900010B5044620460EF0CDFC002807DA01F0FD
:102DA000EDFE00680428F5D07D28F3D0404210BD28
:102DB00038B590F831300446581C082894F8305043
:102DC000A8BF0020854216D003EB8303234483F879
:102DD0003210C3F83320022184F83100012204F1BB
:102DE00060000AF01DF9607A20B104F124000EF0B1
:102DF0000BFD002038BD6FF00B00FBE708B50EF0AF
:102E00002BFD002803DABDE8084001F0B7BE08BD7D
:102E10002DE9F04183689D6905F10C073846FFF7FD
:102E2000B7FF041E1FDB2E7A013616F0FF061DD0F9
:102E3000012E14D1EFF3108872B62B6828469B68D8
:102E40009847044638B92B68288685F85C001B69CA
:102E500031462846984718F0010F00D162B62E720D
:102E60003846FFF7CBFF2046BDE8F0816FF017042E
:102E7000F6E7F8B583689C6904F10C052846FFF76E
:102E800087FF061E07DB237A012B06D9013B23723D
:102E90002846FFF7B3FF3046F8BD00232372EFF357
:102EA000108772B623682046DB68984717F0010F39
:102EB00000D162B6ECE700002DE9F0410B680C464A
:102EC0001B681C49074620469847051E2ADB00253B
:102ED00004F124082A4629462572404604F10C06CE
:102EE00001F07CFE01222946304601F07EFEA84218
:102EF0001BDA01F043FE236820465B6898470E49C1
:102F000023464FF4927238460AF0A3FD051E09DAF3
:102F10004046FFF7A7F83046FFF7ABF8002801DA84
:102F200001F02CFE2846BDE8F0810121304601F079
:102F300090FEE0E73C7211084472110810B5044697
:102F400020460EF0F7FB002807DA01F017FE0068B4
:102F50000428F5D07D28F3D0404210BD082807D9B9
:102F60000938C0B2062802D0024B185C70474020D6
:102F7000704700BF64721108032A2DE9F74F0E460F
:102F8000174671D98368C5689B69EFF3108272B6E2
:102F9000ADF806202A7D2AB1DA7842F00102DA7013
:102FA00000222A75DA78FAB10B2F4FF0000012D9FF
:102FB00002227270B278B06022F03F0242F0280222
:102FC000B270F278307060F341027060F270DA78BB
:102FD0007272D8700C20BDF8063013F0010F00D1CA
:102FE00062B603B0BDE8F08F036805F108085B0620
:102FF00040462FD50EF0B2FB0028ECDB6A7DAB7D9E
:103000009A42E8D04FF0000A4FF04409D3466A7D57
:1030100009FB02500F23407E184019FB0231FFF7D5
:103020009DFF043054468244BA45414415D80246B7
:10303000301902F057FF6A7D0132D2B2072A94BFDD
:103040006A7585F815B0697DAA7D9142DFD1544635
:103050002046C0E70EF02EFBCEE7AB7D9342F7D0C3
:1030600040460EF0D1FBF3E70020BAE72DE9F3412B
:1030700083689C6941F60133994216464BD1EFF3C0
:10308000108572B64FF0000804F5157701A938468F
:1030900001F0BEFD002811DB019B7BB904EB081891
:1030A000B368C8F8603263780133637077B915F09C
:1030B000010F00D162B602B0BDE8F08108F101084D
:1030C000B8F1040F07F11007E0D1F0E7D4F894321B
:1030D0009B69D3B1B268118840F2FE72914217D851
:1030E000204698470028E2DB71680F4B01F5F42178
:1030F00001F5907191FBF3F133684FF47A7202FBA2
:10310000031138460EF044FBD1E76FF02500CEE7FF
:103110006FF01500CBE7D4F894325B69204602B01B
:10312000BDE8F041184700BF40420F002DE9F041D3
:1031300090F8302090F832309A42044629D0002589
:103140004426332794F8311094F83220D4F894327E
:10315000914218D01B6A20469847A0B194F83110CC
:103160004B1CDBB2072B98BF84F83130D4F8943273
:1031700088BF84F8315016FB0171DB692144204679
:1031800098470028DEDAD4F8943201211B692046E2
:1031900003E0D0F894321B690021BDE8F0411847E4
:1031A0002DE9F04F836885B08046894601929C697D
:1031B000EFF3108372B6ADF80A30D4F8943220469B
:1031C0005B6A98470025064604F1240A4FF0440B39
:1031D000019B5B1B032B04D856B32046FFF7A6FFC9
:1031E00026E094F832700137082FA8BF002794F822
:1031F0003030BB4214D009EB0501887800F00F0095
:10320000FFF7ACFE021D94F8320003920BFB00A006
:103210000F3002F067FE039A84F832701544D7E746
:10322000D8F800305B060DD5002D08BF6FF00A05F9
:10323000BDF80A3013F0010F00D162B6284605B080
:10324000BDE8F08F16B12046FFF770FFA378013379
:10325000DBB2A37050460EF02DFAA378013BDBB22F
:103260000028A37006DBD4F8943220465B6A9847A6
:103270000646BCE70546DBE708B50EF0EDFA002888
:1032800003DABDE8084001F079BC08BD2DE9F84338
:1032900083689D6905F10C0706463846FFF74EFE28
:1032A000041E42DB2B78FF2B42D0EFF3108872B65E
:1032B0002B788BBBD5F8943228465B689847044638
:1032C00060BBD5F89432288685F83200DB6801218E
:1032D000284698472B7801332B70346814F001048A
:1032E0001CD04FF40E7002F031FF0024814644756B
:1032F000847522462146083001F070FCC6F80C9017
:10330000AB68C9F804302B1DC9F80030AB68C3F8AE
:103310000090C5F8089001E0002CDBD018F0010FF8
:1033200000D162B63846FFF7A7FF2046BDE8F88314
:103330006FF01704F6E70000F8B583689C6904F1A4
:103340000C0705463846FFF7F9FD061E37DBA06877
:103350004368221D904209D0E968814231D1D0E909
:103360000032136042685A6002F0D8FE0023EB601E
:1033700021780139C9B22170F1B9D4F89432164DCF
:10338000DB682046984794F8302094F832309A420F
:103390001AD1114DD4F8943220465B6A9847B8B1DF
:1033A000EFF3108572B6D4F8943220469B689847A4
:1033B00015F0010F00D162B63846FFF75DFF3046C9
:1033C000F8BD18465B68C5E728460EF0C1FADAE793
:1033D00028460EF0BDFADDE720A107002DE9F347EE
:1033E00083689C6989469246002C6FD000296DD075
:1033F000EFF3108872B604F11807C6683846FFF775
:103400009DFD051E10DBBAF1000F56D0D4F89C329A
:103410009BB1D4F8A0327BB10023C9F818306FF00B
:103420000F053846FFF728FF18F0010F00D162B6EC
:10343000284602B0BDE8F087012304EB8302A733DE
:1034400004EB8303C2F89C92C9F81830A3780133C7
:10345000DBB2A37004F1240528460EF02BF90028F6
:10346000FADBA37894F8322094F830900132013BD3
:10347000082ADBB2A8BF0022A3702846914514BFDA
:103480004FF004094FF000090EF0BEF901A906F152
:10349000080001F0BDFB051EC6DB019B002B05DD0E
:1034A000727DB37D9A4218BF49F001094A46022154
:1034B00004F5277009F0B4FDB3E7D9F81830002BF4
:1034C000AFD0C3F800A0C9F818A0AAE76FF01205A2
:1034D000AEE710B501220021044601F086FB00286A
:1034E00003DABDE8104001F049BB20460121BDE8E8
:1034F000104001F0AEBB00002DE9F0410C46231D49
:103500000021C4E901332180A170E1700122064647
:1035100004F1240001F062FB04F10C00FFF7D9FF75
:1035200004F11800FFF7D5FF04F5157504F52577AC
:10353000002228461146103501F050FBBD42F7D15C
:10354000D4F8943220461B689847234630460349F6
:10355000BDE8F0414FF4DB720AF07BBA6C721108DF
:103560002DE9F04F437885B004460E46174663B305
:10357000002504EB051303F5157903A94846D3F894
:10358000608201F045FB00281CDB039B002B19DA4D
:10359000B3789B0616D4B8F8002033889A4211D12C
:1035A000336848F8033BB07800F00F00FFF7D6FC13
:1035B00005463B189F4219D16378013B637048462A
:1035C0000EF022F90135032DD3DDA568231DD5F8B2
:1035D00004A001936FF00B004FF0010904F527746C
:1035E000019B9D4207D105B0BDE8F08F17F8011B84
:1035F00008F8011FDEE7AB7D6A7D03F1010BBBF12B
:10360000080FA8BF4FF0000B5A452CD003EB031254
:1036100005F10808910008EB82023068C2F80F003B
:10362000B07800F00F00FFF799FC024601F113009B
:103630004044394602F056FC85F816B001220221BA
:10364000204609F0EDFC002503A94046039501F052
:10365000DFFAA8420DDB039AAA4202DC40460EF0D4
:10366000D3F8284601E085F814905546DAF804A00E
:10367000B6E76FF01500B6E710B590F8303090F867
:1036800032209A42044618D00133DBB2072B88BFA0
:10369000002380F83030FFF749FD04F5277004223D
:1036A000022109F0BDFCA37803F0FF003BB104F157
:1036B0002400BDE810400EF0A7B86FF0010010BD67
:1036C000002070471046704707B5019122B10522CE
:1036D000012101A809F0A4FC002003B05DF804FB5F
:1036E0000349044800234FF4DB720AF0B2B900BF6B
:1036F000987211088C7211081046704707B5019135
:1037000022B10522012101A809F08AFC002003B0A2
:103710005DF804FB10B508461446002102F0F0FBEA
:10372000204610BD0349044800234FF4DB720AF021
:1037300090B900BFC4721108B87211082DE9F8439E
:10374000C4680F4615461E46002C36D0984623689E
:10375000D0F810901B680121204698472368DB6849
:1037600013B1002120469847236815499B682046DD
:103770009847236801225B6849462046984723689A
:1037800047F080019B69204698472E44AE4223684B
:103790000CD15B68494620460022984723680021E7
:1037A0001B68204698474046BDE8F8839B69FF2187
:1037B0002046984705F8010BE8E76FF01208F2E79A
:1037C00040420F0000207047F7B5836808460D4659
:1037D0009E6902F0CCFB2E4902462B46062002F0E1
:1037E000EBFB2C490922284602F06CFB074630B956
:1037F0002949062002F0E0FB384603B0F0BD274916
:103800000222284602F05EFB00283BD1284602F047
:10381000AEFB05282DD8EB78A3F13004E4B2092CD7
:1038200006D9A3F14102052A2AD8A3F13704E4B24C
:10383000AB78A3F13001C9B2092917D9A3F141022C
:10384000052A1DD8373B04EB0314E4B20DF107023F
:10385000214601233046FFF771FF9DF807301049DC
:1038600007462246062002F0A7FBC5E704EB011439
:10387000EBE70C49062002F09FFB6FF01507BBE752
:103880000949F7E7284602F094F9C4B2DEE700BF21
:10389000E4721108F9721108037311081B731108FF
:1038A0005F7311081E731108417311082DE9F0416F
:1038B000C4680E461546002C2DD0236807691B6886
:1038C0000121204698472368DB6813B10021204678
:1038D0009847236811499B6820469847236801222E
:1038E000394620465B689847236831469B692046E5
:1038F0009847236829469B6920469847236839469C
:1039000020465B6800229847236820461B68BDE874
:10391000F04100211847BDE8F08100BF40420F0090
:1039200008B50DF099FF002803DABDE8084001F062
:1039300025B908BD10B5044620460DF0FBFE002851
:1039400006DA01F01BF90368042BF5D07D2BF3D0C8
:1039500010BD38B583689C6900252046FFF7EAFF53
:1039600020466562FFF7DCFF284638BDFFF7F1BF50
:103970007FB583689D6928460E46FFF7DBFF0E235F
:103980006A461D212846FFF7D9FE044620B10246AB
:103990006946304602F0A6FA2846FFF7C1FF2046E6
:1039A00004B070BD08B5FEF764FB002803DABDE87B
:1039B000084001F0E3B808BD73B506460D4600297E
:1039C00000F0E880282002F0B1FB0446002800F057
:1039D000E4802822002102F093FA012200212046EF
:1039E00001F003F9002813DA01F0C8F895E80300A4
:1039F00004F10C0383E8030078B96FF01505204645
:103A0000FFF7D0FF204602F089FB284602B070BDC8
:103A10000121204601F01DF9E8E72046FFF78AFF63
:103A2000FF238DF807300DF1070201237521204691
:103A3000FFF784FE9DF80730472B40F0A8805849D7
:103A4000052002F0B9FA002276212046FFF72EFF6A
:103A5000012276212046FFF729FF52480DF078FF1A
:103A6000012276212046FFF721FF02227A212046FB
:103A7000FFF71CFF002276212046FFF717FF4022A8
:103A800016212046FFF712FF01230DF107026521E1
:103A90002046FFF753FE002265212046FFF706FF70
:103AA000002260212046FFF701FF0222612120460B
:103AB000FFF7FCFE9DF8072065212046FFF7F6FE84
:103AC00063225F212046FFF7F1FE362214212046B3
:103AD000FFF7ECFE01230DF1070265212046FFF7F9
:103AE0002DFE9DF80720652142F0040220468DF846
:103AF0000720FFF7DBFE01230DF1070250212046CE
:103B0000FFF71CFE9DF80720502142F029022046B5
:103B10008DF80720FFF7CAFE01230DF107024F21A0
:103B20002046FFF70BFE9DF807204F2142F02902A7
:103B300020468DF80720FFF7B9FE01230DF107029B
:103B40004E212046FFF7FAFD9DF8072022F02002C3
:103B500042F00F024E2120468DF80720FFF7A6FE07
:103B60004FF47A700DF0F4FE2046FFF7D9FE0E49AF
:103B700023464FF4DB72304609F06BFF051EFFF65B
:103B80003EAF0A49062002F017FA00253DE74FF044
:103B9000FF3534E76FF0150537E76FF00B0534E7B5
:103BA00079731108A0860100A87311088E7311089B
:103BB00070B504460D46636E20469B6A9847002800
:103BC000F9D0636E294620461B6ABDE8704018474D
:103BD00010B5044620460DF0ADFD002807DA00F0D0
:103BE000CDFF00680428F5D07D28F3D0404210BDF9
:103BF0002DE9F84FB0F84050B0F944302DB20135FE
:103C000004460F469046AB42D8BF00254FF0010B4B
:103C100000F10409B4F842301BB2AB420AD0B4F848
:103C20004030A26C1BB22DB2D7540020A4F84050F3
:103C3000BDE8F88FB8F1000F22D0EFF3108A72B60A
:103C4000B4F842301BB2AB4218D1636E84F801B0B5
:103C50005B6A01212046984748460DF02BFD636EB4
:103C600006465B6A0021204698471AF0010F00D1F2
:103C700062B6002ECEDA6FF00300D9E70026F4E733
:103C80006FF00A00D4E708B50DF0E6FD002803DA6E
:103C9000BDE8084000F072BF08BD00002DE9F04704
:103CA00000F13406044630460F46FFF791FF051E2B
:103CB0002EDBEFF3108972B600254FF0010A04F1F4
:103CC0000408B4F84020B4F8423012B21BB29A4251
:103CD00011D0636E84F801A05B6A012120469847E9
:103CE00040460DF0E7FC636E05465B6A0021204606
:103CF0009847002DE5DA19F0010F00D162B6DFF820
:103D00004480002DD8F8009005DA3046FFF7BBFF5D
:103D10002846BDE8F087636E2046DB6A9847002896
:103D2000F3D14FF47A700DF013FED8F80030A3EB06
:103D30000903BB42EFD33046FFF7A5FF6FF06D05D7
:103D4000E6E700BFC41D00202DE9F84F83689D6998
:103D5000374B1B6880460F46164673B1EFF3108849
:103D600072B607EB0609B94524D118F0010F00D14E
:103D700062B634462046BDE8F88F0DF017FC814648
:103D80000028EBD105F1340A5046FFF721FF041E4D
:103D9000F0DBD8F8003083F040086B6E49465B6A70
:103DA00028469847C8F38018B146B9F1000F10D1E2
:103DB00034461DE0EB7817F8014B2BB10A2C03D1E8
:103DC0000D212846FFF7F4FE21462846FFF7F0FEB6
:103DD000C9E7EB7817F801BBDBB9424659462846DC
:103DE000FFF706FF041E1FDAB14501D2A6EB090456
:103DF000B5F84020B5F8423012B21BB29A4204D056
:103E00006B6E01215B6A284698475046FFF73BFFDF
:103E1000B0E7BBF10A0FE0D142460D212846FFF77B
:103E2000E7FE041ED9DADFE709F1FF39BDE700BF7D
:103E3000701500202DE9F74F836801929C6904F109
:103E40004C09064648460D46FFF7C2FE071E0FDB2B
:103E500000274FF0010A04F1100B019B9F420BD386
:103E6000626E20469269012190474846FFF70BFF9A
:103E7000384603B0BDE8F08FB4F85A20B4F85810B3
:103E800010B209B281420ED0216E0132095CB4F940
:103E90005C0012B29042D8BF0022A4F85A20013729
:103EA00005F8011BD9E7002FDAD1B368002B3DD00C
:103EB000336813F040073CD1EFF3108872B6626E9E
:103EC0003946926920469047B4F85810B4F85A2001
:103ED00009B212B291421FD1626E0121926920464D
:103EE0009047B4F85810B4F85A2009B212B291426F
:103EF00004D018F0010F00D162B6AEE784F802A03A
:103F000058460DF0D7FB18F0010F00D162B600281B
:103F1000A3DA6FF00307A3E718F0010F00D162B630
:103F2000626E012192692046904796E76FF04C0738
:103F300096E76FF00A0793E72DE9F04183689E69E1
:103F400006F11C052846FFF743FE041E18DB3378F4
:103F5000013313F0FF072BD0012F27D1EFF3108887
:103F600072B6F3787BB9736E30461B689847041EAF
:103F700009DA18F0010F00D162B62846FFF783FE78
:103F80002046BDE8F081736E30469B689847041E5A
:103F9000736E03DA5B6830469847EAE79B69012154
:103FA0003046984718F0010F00D162B63770E4E749
:103FB0006FF01704E1E72DE9F84383689C690D462B
:103FC0009046002C60D000295ED004F128073846C6
:103FD000FFF7FEFD061E41DBB8F1000F4CD004F1E7
:103FE0006C020023904652F8041B002939D104EBDF
:103FF00083021B3304EB830304F13409D56648467E
:10400000AB61FFF7E5FDB4F84020B4F94430B4F8F3
:10401000425012B201329342D8BF002248462DB21C
:1040200004F14C09954214BF04250025FFF72BFE2F
:104030004846FFF7CDFDB4F85820B4F85A3012B214
:104040001BB29A4215D14846FFF71DFE2A460421AD
:10405000404608F0E5FF3846FFF715FE3046BDE85C
:10406000F8830133042BBED10023AB616FF00F0640
:10407000F1E745F00105E6E7AB69002BEBD0C3F8AB
:104080000080C5F81880E6E76FF01206E6E710B585
:1040900001220021044600F0A8FD002803DABDE853
:1040A000104000F06BBD20460121BDE8104000F03B
:1040B000D0BD000070B50C46054601F13400FFF795
:1040C000E6FF04F14C00FFF7E2FF04F11C00FFF7EC
:1040D000DEFF00221146201D00F080FD0022114667
:1040E00004F1100000F07AFD04F12800FFF7CFFF83
:1040F000234628460349BDE870404FF4DB7209F0BF
:10410000A8BC00BFC873110810B5044601220421E1
:104110006C3008F085FFA3783BB10023A37004F155
:104120001000BDE810400DF06FBB10BD10B50422AB
:10413000044611466C3008F073FF637833B10023F6
:104140006370201DBDE810400DF05EBB10BD70B562
:1041500083689C69636E1B690E46154653BB40F22B
:1041600007339E422BD0B6F5427F0ADAB6F58A7F36
:104170006CD040F215139E4200F081806FF0180061
:1041800070BD3FD040F209339E42F7D1EFF310806B
:1041900072B6B4F84020B4F8423012B21BB29A4260
:1041A0004ADAB4F84230B4F840201BB212B29B1A7B
:1041B000013B16E0984710F1190FE1D1CFE7EFF37B
:1041C000108072B6B4F85A20B4F8583012B21BB24C
:1041D0009A420DDCB4F85830B4F85A201BB212B22F
:1041E0009B1A10F0010F00D162B62B600020C7E7C8
:1041F000B4F85A20B4F85810B4F95C3012B209B2CD
:10420000521AEDE7EFF3108072B6B4F84220B4F81A
:10421000403012B21BB29A4205DCB4F84030B4F818
:1042200042201BB2DBE7B4F84220B4F84010B4F9E6
:10423000443012B209B2E3E7B4F84020B4F84210B7
:10424000B4F9443012B209B2521AB0E7EFF3108653
:1042500072B635F0020304BFB4F85830A4F85A30EF
:10426000013D012D06D8B4F84030A4F84230204674
:10427000FFF75CFF16F0010F00D162B6B6E72046EB
:1042800042F21071BDE87040FFF708BD10B5002183
:10429000044604300DF0F3FA002104F110000DF093
:1042A000EEFA012104F134000DF0E9FA012104F1E4
:1042B0004C000DF0E4FA04F128000121BDE81040A3
:1042C0000DF0DDBA70B583689C6904F11C060546E3
:1042D0003046FFF77DFC2378012B06D9013B237084
:1042E0003046FFF7D0FC002070BD636E00212170C6
:1042F0009B69204698472B685B0604D44FF47A618B
:104300002046FFF7CBFCEFF3108572B6636E2046B4
:10431000DB689847E3781BB9636E20465B68984773
:1043200015F0010F00D162B62046FFF7EDFE2046E2
:10433000FFF7ACFFD4E7F8B5002504462F46B4F8E4
:104340004020B4F8423012B21BB29A42AEB212D13F
:10435000B4F84020B4F8423012B21BB29A4204D1F1
:10436000636E00215B6A2046984716B32046BDE87D
:10437000F840FFF7DBBE636E20469B6A9847002833
:10438000E6D0B4F84230A16C626E1BB2126AC95C0E
:1043900020469047B4F84230B4F9442001331BB2B0
:1043A0009A42A4F8423005F10105D8BFA4F8427042
:1043B000C5E7F8BD2DE9F341B0F85850B0F95C30CD
:1043C0002DB201350446AB42D8BF002500261FFAA6
:1043D00086F8636E2046DB69984740B9B8F1000F54
:1043E00002D02046FFF790FE02B0BDE8F081B4F89D
:1043F0005A70636E3FB25B6901A920469847AF428D
:10440000E7D0B4F85830226E1BB20136D0542BB22C
:10441000A4F85830B4F95C300135AB42D8BF002560
:10442000D5E7000008B5044B186818B103689B680D
:1044300003B19847002008BD5003002008B500F0E4
:1044400003F8002008BD000010B508484FF4D272F0
:10445000022100F07FFB044630B100F0FBF918B1F7
:10446000204600F04FFA0024204610BDA16D11082F
:104470000020704710B5044620460DF05BF9002877
:1044800007DA00F07BFB00680428F5D07D28F3D024
:10449000404210BD0020704708B50DF0DDF900283E
:1044A00003DABDE8084000F069BB08BDF8B58368D1
:1044B0009E69371D3846FFF7DDFF041E0BDB35789C
:1044C000013515F0FF050FD0012D06D03570002401
:1044D0003846FFF7E1FF2046F8BD706B03681B68A4
:1044E0009847041EF2DAF3E76FF01704F0E738B5E7
:1044F00083689C69251D2846FFF7BCFF002808DB60
:104500002378012B06D9013B23702846FFF7C4FF0F
:10451000002038BD606B0023237003685B689847F8
:10452000F3E72DE9F84383689D6905F104084046E7
:10453000D5F834900E461746FFF79CFF041E2DDB7E
:104540006FF44063F318032B45D8DFE803F002183B
:104550002A3905F110016B783A460B4607F1240021
:1045600052F8046B43F8046B8242F9D16B7893B133
:10457000D9F8003048469B68984704460BE005F19F
:1045800010033A4605F1340153F8040B42F8040BCA
:104590008B42F9D16B784046FFF77EFF2046BDE89D
:1045A000F8836B786B78F3B9686B036805F11001D9
:1045B0009B68984704460028EDD101236B70EAE719
:1045C0006B78002BE7D0D9F800304846DB68984775
:1045D00000230446F2E7D9F800303A461B69314619
:1045E00048469847C9E70024D5E700002DE9F04187
:1045F000054638200E4601F0A9FD0446C0B1071D4E
:1046000001220021384600F0F0FA00280BDA00F011
:10461000B5FA6663234628460749BDE8F0414FF4E2
:10462000DB7209F016BA0121384600F012FBF0E700
:104630006FF00B00BDE8F081E873110838B504464F
:104640000D46104672B16368002B0CDCA3689869B4
:10465000036B1B689847002804DB2B78012030335C
:104660002B70606038BD0020FCE708B5836898694E
:104670000378033B012B0FD88AB10B78302B09D07C
:10468000312B0ED10121036B5B6898470028A8BF2E
:10469000012008BD0021F6E76FF00C00F9E7104695
:1046A000F7E76FF01500F4E70346501E012804D920
:1046B00052EA010004D1586070476FF0250070473E
:1046C0006FF015007047000070B5A1F50C518368BC
:1046D00001399C691546052977D8DFE801F00310F8
:1046E000171B42622378033B012B74D8236B111EE6
:1046F0005B6818BF01212046BDE870401847236B56
:104700001B6829462046BDE870401847237813707F
:1047100000203BE0002A5ED02378042B5BD90DF00B
:1047200033F9EFF3108272B6E36A0BB1834216D10C
:104730002B6863606B68A360E062002312F0010FD6
:1047400000D162B6002B43D1236B24499B682046DD
:10475000984700281ADB236B0121DB68CBE7012394
:10476000ECE72378042B36D90DF00EF9EFF3108324
:1047700072B6E26A824206BF0025E562012513F0A7
:10478000010F00D162B615B16FF0150070BD236B3B
:104790002946DB68204698470028F7DB236B9B6897
:1047A000AFE7D5B20A2DEFD82378AB42B0D0042BB7
:1047B00003D8236B29461B699DE7236B0021DB6827
:1047C000204698470028F4DAE0E76FF01800DDE7AC
:1047D0006FF00F00DAE76FF00C00D7E7E147100841
:1047E00008B50146C06A28B101F10C030122043169
:1047F0000DF093F8002008BD30B50378042B89B084
:1048000004460D460ED80B4A2B462021684600F080
:1048100085FA094923464FF4DB72684609F019F915
:1048200009B030BD036B0021DB6898470028EADA45
:10483000F6E700BF087411081474110810B5084693
:104840001446114603F0B4F9204610BD0846FCF7A3
:10485000FFB8000018B1034B1860002070476FF0DC
:10486000150070475003002008467047002070472D
:1048700070B5044645690DF08FF885421ED00DF0E5
:104880008BF863699842054613D004F10806304658
:104890000CF050FF002807DA00F070F900680428D7
:1048A000F5D07D28F3D0404238B901236561A3617A
:1048B00003E0A3690133A361002070BD6FF00A001B
:1048C000FBE710B504460DF067F823695A1E012B6B
:1048D00022610BD14FF0FF33E36020460CF0BCFFA8
:1048E000002803DABDE8104000F048B910BD08B553
:1048F000FDF7BFFB002803DABDE8084000F03EB931
:1049000008BD000010B5104B1B680446DBB90CF065
:104910004DFEC0B9FCF7BEFD2379033B012B07D840
:1049200004F11C0008F0AAF904F10800FFF7DFFF0A
:10493000E06A08B101F0F2FB204601F0EFFBBDE8B0
:104940001040FCF7B7BD10BD701500202DE9F041F7
:1049500004464271C380C06A88420D4616461F460F
:1049600006D008B101F0DAFB284601F09DFAE062BA
:104970004FF0010884F804803B463246294604F192
:104980001C0008F01BFB002803DA02232371BDE89A
:10499000F0814FF0FF33002104F10805C4E905312F
:1049A0004246284600F021F9002805DA00F0E6F832
:1049B000042323710020EAE74146284600F049F924
:1049C000F6E7000038B51A4B1B6805461BB16FF0BF
:1049D0002504204638BD0CF0E9FD04460028F6D138
:1049E0002B79042BF5D0012B1FD9FCF753FD2B7924
:1049F000032B14D105F11C0008F040F905F1080063
:104A0000FFF775FF02232B71EB886A79E96A284664
:104A1000FFF79CFF041E04DAFCF74CFDD9E7022BDC
:104A2000F2D0FCF747FD0024D3E76FF00A04D0E78B
:104A3000701500202DE9F84F05468B461646FFF706
:104A4000C1FF041E15DB2846FFF712FF041E10DB12
:104A5000DFF8A490B0465F4605F11C0AB8F1000FDC
:104A60000AD1B7EB0B023ED105F10800FFF729FF91
:104A700034462046BDE8F88F3B780D2B01D00A2B39
:104A80000AD1B7EB0B020BD1B8F1010F3B7814D16F
:104A90000A2B20D007F1010B013708F1FF38DDE7C1
:104AA0005946504608F0B0FD041EEDDA03232B7181
:104AB00005F10800FFF705FFDBE70D2B06D17B783A
:104AC0000A2BE7D1013708F1FF3804E00A2BE1D1C6
:104AD0007B780D2BF6D002224946504608F094FD13
:104AE000041ED7DAE2E7594605F11C0008F08CFDF8
:104AF000041EB9DADAE700BF4874110873B5064638
:104B00000C46FFF75FFF00281FDB0D2C1CD0304642
:104B1000FFF7AEFE002818DB0A2C0BBF0C498DF8FE
:104B200007400222012218BF0DF1070106F11C0007
:104B300008F06AFD054606F10800FFF7C2FE002DE9
:104B4000BEBF032333712C46204602B070BD00BFA8
:104B500048741108F8B5054630200E46174601F096
:104B6000F5FA044630B13B4632462946FFF7EEFEE1
:104B7000014B23602046F8BD4C74110808B501F0C4
:104B800053FA08B1143008BD0048FCE7D41D0020DA
:104B90000346006828B102681A6002B95A6000230F
:104BA000036070470A68034600685AB150B14A680A
:104BB000824214BF01684B604FF000020CBF1A60C4
:104BC0001960026070470D46164608B5044601F0AC
:104BD00041FA31462846A04700F0EFFF12B20346E3
:104BE00002800020C3E90100704708B5034610B1F8
:104BF000B2F5004F06D3FFF7C1FF162303604FF055
:104C0000FF3008BD12B202800020C3E90100F8E7BE
:104C100028B121B103881BB20B60002070476FF0F0
:104C20001500704710B5FFF7F3FF041E05DAFFF714
:104C3000A5FF644204604FF0FF34204610BD0846D3
:104C400031B1481E022834BF6FF089006FF01500A3
:104C5000704710B5FFF7F3FF041E05DAFFF78EFF6C
:104C6000644204604FF0FF34204610BD1F299FBFEF
:104C7000012303FA01F103680B439ABF036000208C
:104C80006FF01500704708B5FFF7F0FF002805DA50
:104C9000FFF774FF162303604FF0FF3008BD1F2994
:104CA0009FBF012303FA01F103688B439ABF03609E
:104CB00000206FF0150070471F299DBF0068C84095
:104CC00000F001006FF0150070470FB413B504AB8E
:104CD00053F8044B01930CF07BFB019A2146803082
:104CE00000F0B8FE02B0BDE8104004B070470EB44A
:104CF00030B588B00BAC014654F8045B02A86FF0E5
:104D0000004201F047F82246294602A8019400F02B
:104D10004EF808B0BDE8304003B070470CB400B5A1
:104D20000A4689B071B1014602A801F033F80BAA16
:104D30000A99019202A800F03AF809B05DF804EB74
:104D400002B0704702A801F03DF8F0E773B50446E1
:104D50000CF03EFB00F180050646284600F0F5FE0B
:104D60002046294600F048FE041E16DD0A232A4686
:104D700001210DF107008DF8073000F053FD0028E8
:104D80000BDD96F8EE305B0704F1010407D5012135
:104D9000284600F0BCFD002801DA4FF0FF340CF08B
:104DA00017FB803000F0EFFE204602B070BD07B563
:104DB000009200220B46114600F004F803B05DF8A3
:104DC00004FB00002DE9F04F91B00446DDF868A027
:104DD0004FF0000993F80080B8F1000F00F0F38362
:104DE000B8F1250F0AD00133059363684146204688
:104DF000984709F10109CDF80CA026E193F801804C
:104E00009A1CB8F1250F0592EFD00026354637469B
:104E10000A223F2F4AD8B8F12B0F3CD013D8B8F153
:104E2000200F3AD0B8F1230F3DD0A8F13003DBB208
:104E3000092B4DD8F8054EBF02FB063602FB05359F
:104E400047F0800707E0B8F12D0F29D0B8F1300FF7
:104E5000EBD147F00107059B13F8018B0593B8F1DF
:104E6000000FD6D1A8F14503022B6ED808F1200817
:104E700047F400575FFA88F817F4807F08BF0626CA
:104E8000B8F1650FF3B240F081800133DBB247F433
:104E90008047002282E047F0020747F00407DAE784
:104EA00047F00807D7E747F01007D4E7B7F5007FCA
:104EB000BBD3B8F17A0F2AD0B8F1740F27D0B8F16C
:104EC0006A0F21D127F48067BFB247F42067C2E799
:104ED000B8F12A0F0FD1F8055AF8043B02D523EA9E
:104EE000E376B8E7002BA7BF47F080071D465D4279
:104EF00047F08807AFE7B8F12E0FDAD1F80500F1D7
:104F0000628347F48077A6E7B8F16C0F09D1BB053F
:104F10004CBF47F4006747F4007727F48067BFB2BF
:104F200099E7B8F1680F08D178054CBF47F40067DE
:104F300047F4806727F40077F1E7B8F1700F04BFFA
:104F400027F4206747F400778CE7A8F16503022B6C
:104F500092D9B8F1630F00F0B18108F0DF03532B51
:104F600040F0D281534653F804AB03939B4BBAF104
:104F7000000F08BF9A4617F4807F14BF31464FF0E8
:104F8000FF31504600F0FBFF8046A1E1B8F1660F0B
:104F90007FF47FAF1A4647F400470F230AF1070A50
:104FA0002AF0070100928C46FCE802010F2B0DF15C
:104FB000280B28BF0F235A46CDF80CC000F038FB51
:104FC0009DF82C3003F00902012A42D0BA0743D4DD
:104FD00017F0040F0CBF4FF000084FF0200813F03B
:104FE0000C0F43D0B8F1000F14BF04230323AB42CE
:104FF0000BDA3907A5EB030508D42E466368202198
:1050000020469847013EF9D1A9440025B8F1000F88
:1050100005D063684146204609F1010998479DF88B
:105020002C306F4E13F0080F6E4B18BF1E46A9EBC5
:10503000060807F4005708EB060916F8011B71B9BA
:105040002E46002E40F0B982A944DDF80CA0059B45
:10505000C0E64FF02D08C2E74FF02B08BFE70FB1B5
:105060002039C9B2636820469847E4E7C3B2049385
:105070005D4BDDF828A0049A1F4219D11346043372
:105080005B44049919B113F80119302928D01AF199
:10509000040F2ADB924528DABAF1000F47F40047E3
:1050A00002DB049B9A4523DA049B0AF101069E1B4E
:1050B0003BB2002B0693BABF2AEAEA7301330523F9
:1050C000B8F1000F00D00133A6B1721C1344AB42FB
:1050D000B4BFED1A002517F0090F1AD12A4613E0C4
:1050E0000499481EC1B20491CBE7049B5E1EDFE722
:1050F0000026DDE7FA0648BF0133E8E72021204615
:1051000007929847079A013A6368002AF6D1A944A2
:105110001546B8F1000F05D063684146204609F1F5
:10512000010998473B070CD4A84604E030212046EB
:10513000984708F1FF386368B8F1000FF6D1A94429
:105140004546069B002B51DA2AEAEA787342AAEB1D
:10515000080B0793049B079A9B453CBF0AAB5B4433
:1051600008F1FF3834BF5E79302609F1010390451C
:10517000069363681DDAFF0607D5B8F1FF3F04D137
:105180002E2120469847DDF81890C2450AD19DF897
:105190002D30352B1FD805D19DF82C3013F0100F72
:1051A00008BF312663683146204609F10109984756
:1051B00046E7314620469847B8F1FF3F06D109F14E
:1051C000020306932E21636820469847DDF8189065
:1051D0000BF1010BBEE73126E4E700BF687411084C
:1051E000607411086474110800C0FFFF9DF82D1051
:1051F00031291EBF9DF82C3023F010038DF82C3080
:10520000204663689847002E636842DD2E212046C1
:10521000984709F102094FF001084645636826DA0C
:1052200017F4005F14BF4521652163682046984745
:10523000BAF1000F04DB37D19DF82C30D90633D5F5
:10524000CAF1000A2D2163682046984750460A2378
:105250005A46C11700F0BCF9A0EB0B06F6B2771E58
:1052600009F102095F44B04606BBC144E8E6049A6E
:10527000424585BF08F140026A44302112F8131CF0
:10528000204608F10108984709F101095FFA88F8FA
:10529000C3E7F80602D409F10109C1E72E2120462F
:1052A00009F102099847BBE72B21CCE7636817F89F
:1052B00001192046013E9847F6B2D5E752464FF015
:1052C000010852F8043B03928DF828300DF1280AAA
:1052D0003A0716D50AEB0806B245C6D063681AF835
:1052E000011B20469847002DF6D0013DF4E7636886
:1052F000202120469847013DA845A6EB0509F6D395
:10530000E8E705EB0906F7E7B8F1640F07F4206357
:1053100002D0B8F1690F76D1B3F5206F60D10AF1F0
:10532000070A2AF0070A5346DAF8041053F8080B64
:10533000039327F4805B00292BF0100B06DA404220
:105340004BF4805B61EB41011FFA8BFB1BF4807F08
:1053500004D01EB950EA010300F0C2800AAF0A234C
:105360003A4600F035F9C71BFFB21BF4807FB84600
:1053700000F0B8802BF0010AB7421FFA8AFA80F2D7
:10538000B48044F210020BEA0202102AF3B203D1F5
:105390002BF0110A1FFA8AFA1AF0100F00F0AF80F2
:1053A00007F140026A4412F8192C302A40F09F801D
:1053B0002AF4C04A2AF0100A1FFA8AFA1AF0080FD3
:1053C00040F0AF801AF0010F05D0AB4280F2CF80E1
:1053D000EB1ADE19EBB2A3EB090B5FFA8BFB9BE038
:1053E000534653F8040B0393BB054FEAE071A0D476
:1053F0007A059ED53B0555BF40F3C03140F3C0113F
:1054000000B240B295E7B3F5206F1ED10AF1070A4A
:105410002AF0070A5346DAF8041053F8080B0393EE
:1054200027F0060BB8F1580F1FFA8BFB44D0A8F1F8
:105430006F03DAB2092A46D8092B44D8DFE803F013
:105440004E2443434343164343350AF10403039375
:10545000B905DAF8000001D50021E1E717F4806111
:10546000DED03A0554BF80B2C0B2F5E727F0160788
:105470001FFA87FB0A231BF4807F03D016B950EA7A
:1054800001022DD00AAF6BE7059B1B78562B0AD182
:10549000059B0133059343681A6809920168204609
:1054A000FFF785FCD1E54BF0100B1BF0100F01D07E
:1054B0004BF4804B1023DEE7FB0601D54BF4C04BC9
:1054C0004FF40473D7E76368204625219847636843
:1054D0004146204609F102099847B6E50823CAE784
:1054E000374642E73B46DA4656E73B4654E71AF46E
:1054F000804F01D1013300E00233DBB25EE741F2BD
:1055000006021AEA020F3FF459AFF3E7636820215D
:10551000204609F1010998470BEB0903DBB2AB42C6
:10552000F4DBAB42B4BFED1A00251AF0100F2BD0FC
:1055300063683021204698471AF4804F19D109F149
:105540000109B246BA4531DCF01BBE42B8BF0020AB
:105550008144002F3FF489AE7B1E10AA52FA83F2D9
:10556000DFB212F8181C636820469847F1E73E4600
:1055700031E71AF4005F636809F1020914BF58218A
:10558000782120469847DCE741F206031AEA030F28
:10559000D7D01AF0020F14BF2B2120211AF4805FFC
:1055A000636809F1010918BF2D21EAE7636830211A
:1055B000204698470AF1FF3AC4E763682021204655
:1055C0009847013E3DE5484611B0BDE8F08F00BF69
:1055D0002DE9F84313F400791C4618BF23F4007436
:1055E00006460F46154618BF4FF001094FEAE4780A
:1055F00030463946224643460BF0A0FB092AB44602
:105600003B4606460F4609DC3032A44573EB0803DF
:1056100005F8012BECD22846BDE8F883B9F1000F5C
:1056200001D03732F1E75732EFE700000000000009
:105630002DE9F74F1D4611F000430E4618BF01F14A
:105640000046009208BF9B464FF000024FF0000357
:105650003146074618BF4FF0010B0BF0D7FA04464E
:10566000A8B1009B25EAE5723021581D00F048FCE6
:105670004BF0020B0024009B2B4400225A71009B2C
:10568000284683F804B01C6003B0BDE8F08F3A46AA
:105690003346384631460BF0EBFA10B14BF0080BAD
:1056A000E9E726F00044584B4FF0FF3238462146D8
:1056B0000BF0DEFA58B92146534B4FF0FF32384613
:1056C0000BF0B8FA044610B94BF0040BD3E74AA329
:1056D000D3E90023384631460BF0A2FA00286CD0FB
:1056E000DFF828A14FF008080F243A4633467AE83D
:1056F00002010BF023F842A3D3E90023019089466D
:105700000BF08EFA28B1012303FA08F3019FE41A83
:105710004E46B8F10108E8D20C9B3BB10C9A24EA42
:10572000E473013313449D42A8BF1D46384B03EB7D
:10573000C503D3E90023384631460AF049FE30A3B9
:10574000D3E9002306460F460BF07EFA40B13046FF
:105750003946304B00220BF01BF9013406460F4648
:10576000304639460BF002FB009BDFF8AC80DFF8D7
:10577000AC9003F1050AC3F1FF2303F57F03FB336C
:1057800006460F460193019B53449D427FF773AF3A
:1057900042464B46304639460BF0D0FA00F1300C09
:1057A000494640460AF801CB16461F460A22002306
:1057B0000BF0C4FA80468946E5E7DFF864A04FF0B5
:1057C00008080F243A4633467AE802010AF0B6FF89
:1057D00009A3D3E90023019089460BF035FA28B1DB
:1057E000012303FA08F3019F1C444E46B8F1010857
:1057F000E8D291E7AFF3008000003426F56B0C434C
:105800000080E03779C34143FFFFEF7F78751108CF
:1058100070741108000024400080C6A47E8D03002F
:10582000307511082DE9F04107460E46154642B97C
:10583000FFF7A4F9092303604FF0FF342046BDE8C9
:10584000F081B2F86C309B0706D4FFF797F9092373
:1058500003604FF0FF3418E0D3693BB90A460146B4
:10586000A86907F0F7FE041EE8DAF2E7104600F038
:105870006CF9284600F093F800280DDA4FF0FF3459
:10588000284600F080F9002CD8DA95F86E3043F005
:10589000020385F86E30D1E7D5E90840241A402C80
:1058A00001D13F2E1BD8B44228BF34462246394688
:1058B00000F018FB6B6A2A6A23449342A6EB0408A3
:1058C0006B623C4404D2B8F13F0F13D9464607E05F
:1058D0000021284600F01BF80028F4DACEE73C4609
:1058E000A8693246214607F0B5FE0028C6DB04440D
:1058F000E41BC5E7B8F1000FFAD02146686A4246BA
:1059000000F0F0FA6B6A43446B62BC19F0E7F8B53B
:105910008369002B05460F463EDBB0F86C309B07D1
:105920003AD500F012F9EC69FCB16E6AB44207D1C5
:10593000284600F028F96C6AE969641A2046F8BD27
:10594000AB6A9C4226D1361BA8693246214607F035
:1059500081FE00280DDA95F86E3043F0020385F8D9
:105960006E30FFF70BF904686442284600F00BF92B
:10597000E4E70444361A0FB1002EE5DCEB696B62F4
:105980002644B442D4D06B6A5A1C6A6214F8012BC4
:105990001A70F6E70024E8E76FF00804CEE710B5C8
:1059A000044630B9FFF7EAF8092303604FF0FF30EF
:1059B00010BDC369F3B100F0C8F8A06AE269904273
:1059C00013D0636A94F86F101B1AC4E909220022ED
:1059D00084F86F20591A0122204600F03CFB002871
:1059E00003DA204600F0CFF8E0E7204600F0CBF8DD
:1059F0000020DDE71846DBE770B591F86E305B07F5
:105A000005460C461AD506463046711B037801360A
:105A10003BB122460121FFF705FF002803DC4FF0D0
:105A2000FF31084670BD16F8013C0A2BECD101216C
:105A30002046FFF76CFF0028E6DAF0E700F097FA5F
:105A400001460028EDD022462846FFF7EBFE40EA4B
:105A5000E071E6E770B586B004460D46014601A840
:105A6000164600F0D5F9204600F06FF82946324678
:105A700001A8FFF79CF90546204600F084F8284667
:105A800006B070BD08B5FCF7F4FA002803DABDE8EB
:105A90000840FFF773B808BD10B501220021044685
:105AA000FFF7A3F8002803DABDE81040FFF766B857
:105AB00020460121BDE81040FFF7CBB870B5044681
:105AC0004FF0FF3500265830FFF7E6FF04F168007D
:105AD000C4E97066C4E91E656567FFF7DDFF04F180
