:020000040810E2
:10000000043100209D0110086D0A10086D0A1008C7
:100010006D0A10086D0A10086D0A10086D0A1008A4
:100020006D0A10086D0A10086D0A10086D0A100894
:100030006D0A10086D0A10086D0A10086D0A100884
:100040006D0A10086D0A10086D0A10086D0A100874
:100050006D0A10086D0A10086D0A10086D0A100864
:100060006D0A10086D0A10086D0A10086D0A100854
:100070006D0A10086D0A10086D0A10086D0A100844
:100080006D0A10086D0A10086D0A10086D0A100834
:100090006D0A10086D0A10086D0A10086D0A100824
:1000A0006D0A10086D0A10086D0A10086D0A100814
:1000B0006D0A10086D0A10086D0A10086D0A100804
:1000C0006D0A10086D0A10086D0A10086D0A1008F4
:1000D0006D0A10086D0A10086D0A10086D0A1008E4
:1000E0006D0A10086D0A10086D0A10086D0A1008D4
:1000F0006D0A10086D0A10086D0A10086D0A1008C4
:100100006D0A10086D0A10086D0A10086D0A1008B3
:100110006D0A10086D0A10086D0A10086D0A1008A3
:100120006D0A10086D0A10086D0A10086D0A100893
:100130006D0A10086D0A10086D0A10086D0A100883
:100140006D0A10086D0A10086D0A10086D0A100873
:100150006D0A10086D0A10086D0A10086D0A100863
:100160006D0A10086D0A10086D0A10086D0A100853
:100170006D0A10086D0A10086D0A10086D0A100843
:100180006D0A10086D0A10086D0A10086D0A100833
:100190006D0A10086D0A10086D0A100808B500F005
:1001A0003BF800F0D7F900F0C7F8412000F0C6F99D
:1001B000144B154A002193421CD3422000F0BEF993
:1001C000124B134A13498B4217D3432000F0B6F960
:1001D00000F0E2FB442000F0B1F900F0ECFD462015
:1001E00000F0ACF90D2000F0A9F90A2000F0A6F902
:1001F00000F09AFF43F8041BDDE752F8040B43F8C4
:10020000040BE0E7940B0020042D002000000020E8
:10021000B0051208940B002013B5384A384813680B
:1002200043F001031360374B00241C60116821F078
:10023000847121F48031116033490160116821F427
:100240008021116031490C60116841F480311160E6
:100250002F490191019900294ADC019A2D49002A70
:1002600031DD0A682C4C42F080520A60226842F468
:10027000404222601A6822F0F0021A601A6822F4E2
:10028000604242F400421A601A6822F4E05242F4DA
:10029000A0521A60214A0260184A106840F080702B
:1002A000106010688001FCD51D4A40F20570106096
:1002B0001A6822F0030242F002021A601A6802F081
:1002C0000C02082AFAD1174A13686FEA53236FEA1F
:1002D00043231360144B1A681A600A68134B1343C4
:1002E000134A0B601168134B0B43136002B010BD2F
:1002F00011688C03B1D401990139AAE70038024092
:100300000438024008380240103000240C38024003
:100310001482190040380240007000401954400710
:10032000003C024030380240343802408E801216C1
:10033000443802403141050070470000C0F3031308
:10034000082B09D8064A00F00F0052F82320012399
:1003500019B103FA00F0906170471030F9E700BF5F
:100360008CAF11082DE9F843C0F30317082F04469A
:1003700000F2C380624B53F8276000F44023B3F5CA
:10038000002F00F00F0500F0A280B3F5402F00F021
:10039000A080B3F5802F40F09E80C0F30021FFF7CE
:1003A000CDFF0121EFF3108272B6022940F0958053
:1003B00014F4704FC4F3033C14D020074BBF242027
:1003C0002020A5F108032B4650F806E09B004FF0D3
:1003D0000F0808FA03F82EEA080E0CFA03F343EAB2
:1003E0000E03835130684FEA4508032303FA08F3EC
:1003F00020EA03006FEA030E01FA08F3034303291E
:1004000033606DD004F44033B3F5803F6AD0B3F568
:10041000003F0CBF02200020F36800FA08F00EEA4B
:1004200003031843F060BCF1000F10D123074BBF4A
:1004300024202020A5F108032B4650F806C09B007D
:100440004FF00F0909FA03F32CEA03038351481E06
:10045000012849D804F44063B3F5006F46D0B3F5E2
:10046000406F45D0A3F5806CDCF1000343EB0C0337
:10047000D6F808C003FA08F30EEA0C0E43EA0E039E
:10048000B3604FF0010C012873680CFA05FC31D8F9
:10049000A0052FD543EA0C030129736010D0E305B2
:1004A0000ED5184804F00C04AD00235805F00C05D7
:1004B0000F21A94023EA010307FA05F51D43255042
:1004C00012F0010F00D162B60020BDE8F8830221CE
:1004D00068E7032166E7002164E74FF0000C81E73D
:1004E000002099E7012097E70023C1E70223BFE737
:1004F0000323BDE723EA0C03CEE76FF01500E4E722
:100500008CAF110808380140C0B2FFF72BBF0000C4
:10051000C0F30313082B0DD8074A52F8233000F01C
:100520000F001A69012303FA00F0104214BF1846A5
:1005300000207047002070478CAF1108034A1368F1
:100540005B06FCD5024B1860704700BF00500040AE
:100550000450004008B54FF480120021144800F008
:1005600077FA1448FFF7FEFE1348FFF7FBFE134B24
:1005700013491A6822F400521A600A6822F47D5264
:100580000A601A6822F4BB5222F01C021A604A6800
:1005900022F4E06222F001024A600A4A40F26D1140
:1005A00011601A6842F4005242F00C021A6008BD51
:1005B000403802402C8C0900328C09000C5000405D
:1005C000105000400850004010B5D0F89040A0F8FE
:1005D0007C10E26801F4F07322F4F0721343E360DC
:1005E000D0F89020536901F0010123F00103194371
:1005F000516110BD10B5EFF3108472B6FFF7E4FF40
:1006000014F0010F00D162B610BD10B5EFF31084E5
:1006100072B649B1D0F89020D368526903F4F073F0
:1006200002F0010213430B800021FFF7CDFF14F00D
:10063000010F00D162B610BD6FF018007047836ED5
:10064000D3F890205068B3F87E2040EA02420A6056
:100650000022A3F87E20C0B2704710B5806EEFF381
:10066000108472B6B0F87C3041B143F02001FFF73E
:10067000C1FF14F0010F00D162B610BD23F49071D8
:1006800021F00101F3E7836ED3F890301868C0F3CE
:100690004010704710B5806EEFF3108472B681B1D0
:1006A000D0F89C30B0F87C1043B941F08001FFF7DE
:1006B000A1FF14F0010F00D162B610BD41F0C001DE
:1006C000F5E7B0F87C1021F080010904090CEEE791
:1006D000836ED3F890301868C0F3C010704738B5F7
:1006E000856ED5F89C000C4618B195F8A010FFF760
:1006F00025FED5F890305C6038BD10B5846E94F856
:10070000880000F099FA002294F888001146BDE8AC
:10071000104000F0F3BD000038B5856E064995F82D
:1007200088002A4600F0EAFD044618B995F88800CA
:1007300000F094FA204638BD3D07100838B514463D
:100740004FF48075D4F890301B689BB25906A4F81A
:100750007E3016D5B4F87C3003F0C003402B10D1A6
:1007600094F8A010D4F89C0081F00101FFF7E6FD99
:10077000B4F87C1021F040010904090C2046FFF771
:1007800039FFB4F87E309A0619D5B4F87C2090066B
:1007900015D5204603F066FE0123B4F87E2011062D
:1007A00007D5B4F87C20120603D5204603F01BFEC3
:1007B0000123013D01D0002BC4D1002038BD13F02E
:1007C0000E031EBFD4F890305B680023E5E70000FD
:1007D000836E0A46D3F8903011498B4213D008D863
:1007E000A1F54C418B4211D001F540618B4211D0F3
:1007F00070470C498B4211D10B4820210AB10A469F
:10080000002100F025B908481021F7E707484FF408
:100810000031F3E705484FF48011EFE7704700BF60
:1008200000100140001401404438024040380240AA
:1008300070B5846E002605463146204684F88060F7
:10084000FFF7E3FE31462846FFF7C2FFD4F89020B9
:10085000D36823F4005323F00C03D360D4F894003E
:10086000FFF752FED4F89800FFF74EFED4F89C0034
:1008700018B1BDE87040FFF747BE70BD38B5846E53
:1008800001210546FFF7A4FFD4F89400FFF76AFDA5
:10089000D4F89800FFF766FDD4F89C0048B1FFF744
:1008A00061FD94F8A010D4F89C0081F00101FFF7DD
:1008B00045FDD4F8902094F88310136923F47D53F8
:1008C00009B143F400531361D4F89020D36823F4A2
:1008D000BE73D360D4F89020536923F4E06323F00F
:1008E00001035361A96ED1F88430D1F890005D08FE
:1008F000D1F88C30B3FBF5F35D09C26840D11D0916
:1009000003F00F03013342F400425B08C260D1F8E8
:10091000900043EA0513836022F4B05391F88120DC
:10092000012A34D143F4C06391F88200092802D02F
:10093000082802D10AB143F48053D1F89020D36043
:10094000D1F8902091F88300136923F4405308B143
:1009500043F400531361D1F89020536923F440739A
:100960005361D4F89020D36843F4005343F00C0350
:10097000D36000200123A4F87C0084F8803038BDC7
:1009800003F01F0301335B0822F40042BEE7022A92
:1009900008BF43F48063C7E738B5084D002455F815
:1009A000040B10B10021FFF730FE0134082CF6D102
:1009B000BDE838400248FFF761BF00BFD4AF11085F
:1009C000000000207FB510491048114D03F0CAFB0C
:1009D0000D49104803F0C6FB0F49684605F09DFB22
:1009E0000024012355F8041B49B1CA783AB95E1CAA
:1009F000684630338DF8093003F0B4FB33460134D8
:100A0000082CEFD104B070BD00000020B0AF110879
:100A1000D4AF1108BDAF1108C8AF110813B5044613
:100A20000DF106010948FFF7F0FD0A2C02D10D2057
:100A3000FFF784FDE0B2FFF781FDBDF80610034823
:100A4000FFF7D8FD204602B010BD00BF0000002017
:100A500010B5EFF3108472B6036823EA01010A436C
:100A6000026014F0010F00D162B610BDEFF30580F3
:100A70001EF0040F02D0EFF309818D466A4602F1A1
:100A80002002EFF310832DE9FC4F6946A1F14C02DF
:100A900022F00702954600F003F9B0E8FC4F1EF083
:100AA000040F0CBF80F3088880F3098883F3108853
:100AB0007047000008B5EFF3108372B60148AA2111
:100AC00000F064FC24B0110808B5EFF3108372B68F
:100AD0000148A22100F05AFC24B0110808B5EFF338
:100AE000108372B601489A2100F050FC24B011081E
:100AF00008B5EFF3108372B60148922100F046FC6E
:100B000024B011080F2810B510DD1038441103EB84
:100B1000840303F1604303F561430B6000F01F00A1
:100B2000012303FA00F01060002010BD0D4B0B6094
:100B3000042803D14FF480331360F5E7052802D170
:100B40004FF40033F8E7062802D14FF48023F3E78F
:100B50000F2803D1044B0B600123EDE74FF0FF306A
:100B6000E3E700BF24ED00E010E000E0254A26495D
:100B700008B54FF0FF33136053609360234B244A52
:100B80001A604FF080321A615A619A61A3F60453D9
:100B90001B680133DB00013B31D21E4900220B20D0
:100BA00000F0ACFB1C490022032000F0A7FB1B490E
:100BB0000022022000F0A2FB19490022042000F0CC
:100BC0009DFB18490022052000F098FB16490022E1
:100BD000062000F093FB154900220E2000F08EFB4A
:100BE000134900220C2000F089FB00221149104615
:100BF00000F084FBF02383F3118862B608BD41F84E
:100C0000042BC8E780E100E000E400E008ED00E02C
:100C100000001008410D1008D50C1008F10A10084A
:100C2000250D1008850C1008710D1008DD0A10083C
:100C3000C90A1008B50A100813B5802301AA69462D
:100C40000446FFF75FFF38B9DDE900310F2CD7BF4D
:100C50001A6819608A431A6002B010BD13B50023E8
:100C600001AA69460446FFF74DFF38B9DDE90031B6
:100C70000F2CD7BF1A6819600A431A6002B010BD62
:100C80007047000008B5044B1B68EFF3108372B681
:100C900002486A2100F07AFB28ED00E035B0110827
:100CA00070B50B4D2B6806460C460BB929601C46E7
:100CB0003046FFF7E5FF2968304600F03FFB2CB9CE
:100CC0002C680023002C38BF00242B60204670BD08
:100CD0009413002038B50E4B0E4D1B680E4B1B684D
:100CE0004B6C9C1EAC420BD30C4DAC4208D233F87B
:100CF000023CB3F55F4F03D1BDE8384000F020B8A7
:100D0000EFF3108372B60648AF2100F03FFB00BF3F
:100D10002CED00E00000100828ED00E0A605120808
:100D20004CB0110808B5044B1B68EFF3108372B682
:100D30000248662100F02AFB28ED00E064B01108AB
:100D4000CA6A012A08B508D0022A0AD01AB9086B63
:100D50004C2205F0C1F9002008BD0A6B034B1A6054
:100D6000F9E70A6B11604A6BF8E700BF94130020A3
:100D700008B5044B1B68EFF3108372B6024872216A
:100D800000F004FB28ED00E07BB0110808B500F08E
:100D900011F8BDE80840FFF715BE0000044B1B68C2
:100DA0000360C3F1005303F540330B60704700BF8D
:100DB00088AF11087047704700F000B813B52B4892
:100DC00004F0CCF8002300931846294A29490DF075
:100DD00025FA031E04DA274A2749032005F0E6F91D
:100DE00000F07CF8041E07DA24492246032005F0AF
:100DF000DDF9204602B010BD2149062005F0D6F9E4
:100E0000204804F0ABF800F0E1F8021E03DA1E49B6
:100E1000032005F0CBF900F08BF8021E03DA1B4922
:100E2000032005F0C3F900F0EDF8041E02DA1849BA
:100E30002246DBE71749062005F0B8F900F096F8DE
:100E4000041E02DA14492246D0E71449062005F0B0
:100E5000ADF900F0FDF8041E02DA11492246C5E79B
:100E60001049062005F0A2F9C3E700BF94B01108AD
:100E7000A2B01108A9B01108AFB01108D0B0110884
:100E8000F6B011080FB111082BB1110854B11108B7
:100E900077B111089EB11108B8B11108DBB1110882
:100EA000F2B1110815B2110808B5044B90F83420BE
:100EB00053F82200FFF742FA002008BD64B211087F
:100EC00010B5054B90F8342053F822000C46FFF77C
:100ED0001FFB2070002010BD64B211082DE9F843FB
:100EE000104C114FDFF8448000254FF003092946CC
:100EF000204684F8345084F80090C4F8308003F021
:100F000093FD57F8046B00213046FFF717FA0135BF
:100F10003046FFF727FA042D04F13804E7D100200A
:100F2000BDE8F8839813002064B2110874B2110868
:100F300008B5012006F0AEFF014610B96FF01200AF
:100F400008BD084802F02EFB0028F9DB022006F05D
:100F5000A1FF01460028F1D0034802F023FB00EA7C
:100F6000E070EDE788B2110892B2110870B5114E29
:100F70003578EDB91048FFF7F5F901220F49104611
:100F800006F008F8014638B90D49032005F00EF9BE
:100F90006FF01204204670BD0A4801F0DBFF041E0A
:100FA00004DA0949032005F001F9F3E7012333705E
:100FB0000024EFE77814002020000C00F4B21108A0
:100FC0009CB21108C0B21108CFB2110807B50023B6
:100FD0000320CDE9003305F035FD40B90320074972
:100FE00005F0E4F86FF0120003B05DF804FB009028
:100FF0006946034802F038FDF6E700BFF5B2110874
:1010000023B3110810B5012006F08EFB01460C48F1
:1010100003F004FC002803DA0A49032005F0C6F8AF
:10102000092006F081FB0146074803F0F7FB041E88
:1010300003DA0649032005F0B9F8204610BD00BFC9
:101040002CB311083AB3110862B3110870B3110838
:1010500010B52A4C2378002B4ED10D2006F042FA11
:10106000014610B96FF0120010BD254803F016FBC1
:101070000028F9DB2349062005F098F8052006F042
:1010800031FA01460028EDD01F4803F007FB002885
:10109000EADB1E49062005F089F8042006F022FA52
:1010A00001460028DED01A4803F0F8FA0028DBDBFE
:1010B0001849062005F07AF8032006F013FA0146D5
:1010C0000028CFD0144803F0E9FA0028CCDB1349FC
:1010D000062005F06BF8092006F004FA0146002806
:1010E000C0D00F4803F0DAFA0028BDDB0D49062016
:1010F00005F05CF8012323700020B5E77914002087
:1011000098B31108A2B31108B4B31108BEB3110803
:10111000D0B31108DAB31108ECB31108F6B3110813
:1011200008B4110812B41108454C464E83B501238A
:10113000942200212046337004F0DCFF0323237740
:10114000414B4249424FC4E9053304F1740506237B
:10115000E3831F22284604F0E8FF3E4A217F3D60DA
:1011600002EBC1031B791B0745BF236C52F83120EA
:1011700052F831309B18002262601A682260002AFF
:1011800058D1C3E90044344B344D1C6001A90223FB
:1011900068463370FFF702FEDDE9000105F08AF8CA
:1011A00004232B602B68012B47DD2868800005F0A5
:1011B000A7F82B4B18602B680460A17F204800F033
:1011C00001FEA3681E489B6ADF6006F049FF1C48C9
:1011D00000F0D2FC1A4800F031FEA36805241C730D
:1011E000204B00221A600323337000F069F90BF0E2
:1011F000A3FD00F075F800F0FBFC00F015FC00F01A
:10120000CBF900F033F900F041F90FF05FFCFFF784
:10121000BDFD01F0E8FC04230948337000F080FEB6
:10122000347000F03BF80623337000F059F905F0F4
:101230006DFCFCE754601C60A5E72B685B00B0E721
:1012400084140020281500202911100824B4110846
:101250007C14002030B41108401500202415002013
:10126000341500202015002010B586B00024059408
:10127000FFF7A2FD05AB0193064B009302944FF4D8
:10128000006322466421044800F0E1F9204606B0DC
:1012900010BD00BF3985100878B411081FB50C497E
:1012A0000C48012200F0FCFC00F0ACFC0A4B01935E
:1012B00000244FF400630390009302942346F0222D
:1012C0000221064800F098F9204604B010BD00BF86
:1012D00081B4110803D411086912100883B41108ED
:1012E000044A0549002342F833100133672BFAD131
:1012F000FFF73CBC4C15002079131008662870B528
:1013000005460C4613D8EFF3108672B619B9FFF7ED
:1013100093FC2246074C084840F8354000EBC500D6
:10132000426016F0010F00D162B6002070BD6FF070
:101330001500FBE7791310084C150020662808B546
:101340000CD8094A52F830305BB102EBC002526847
:101350009847064B1A68064B1A6008BD0022054BD9
:10136000F6E71A46FBE700BF4C15002038150020B1
:10137000401500207913100808B5EFF3108372B6FA
:101380000148362100F002F88EB411081C4C07B554
:101390000E46054603F09EF8216841BB194B1B68B9
:1013A0001B6823B3012000F035F8236813B3164BF4
:1013B0001B68164A16497433CDE9006300202B469A
:1013C00004F0F4FE03F086F83146284606F086FD68
:1013D00003F080F823681BB90A4B1B681B685BB9D4
:1013E000EFF3108372B6FA2006F024FEFBE700212B
:1013F0000846D8E7034BDBE7012004F00BFD00BFF4
:10140000941300203815002040150020D9B411088D
:10141000A6B41108F8B504460D46EFF3108672B66F
:10142000074B186820B916F0010F00D162B6F8BD5D
:10143000D0E900372A46214698473846F2E700BFF0
:101440008418002038B504464FF4B0700D4604F0FF
:1014500047FF50B100F5B07223680572C0E900344F
:10146000586020602C309042F6D138BD08B5054850
:101470000021FFF7E7FFBDE8084003480221FFF71E
:10148000E1BF00BF900200209802002038B54FF461
:10149000C07004F025FF78B1084A146800F5C075E3
:1014A00003462146C3E900121C464B6030339D427F
:1014B000F7D100F5A870106038BD00BFA002002071
:1014C000054B1B682BB1054A126812B91A8C013200
:1014D0001A840020704700BF3815002094130020A4
:1014E00010B5104B1A6892B10F4B1B687BB9EFF324
:1014F000108472B6B2F92030002B0ADC002313846A
:101500000A4B1B685BB914F0010F00D162B60020D2
:1015100010BD013B9BB21384002BF4D1EEE706F023
:101520001DFDF0E738150020941300202C15002035
:10153000F8B50446182048430D46174604F0D0FE7F
:1015400068B1002301469C4622680F750E4641F89B
:1015500018CB2AB9266001339D426660F4DCF8BDE1
:1015600062681660F7E7F8B50D010446284616468E
:1015700004F0B6FE60B105440346002227681E73DE
:10158000194643F8102B27B92160AB426160F5D1B1
:10159000F8BD67683960F8E7F8B51248124B134F89
:1015A000134E144D002422460421C3E90044C0E92F
:1015B0000044C7E90044C6E90044C5E90044FFF718
:1015C000B7FF022208213846FFF7B2FF2246042166
:1015D0003046FFF7C8FF28460222BDE8F840082140
:1015E000FFF7C1BF9018002088180020981800202D
:1015F000A8180020A01800202DE9FF4105469420DE
:10160000884616461F4604F07BFE0446E0B10D9B5B
:10161000A0F81E8003930C9B02930B9B01930A9BE3
:10162000009329463B46324600F048F8051E06DA8C
:10163000204604F04DFE284604B0BDE8F081204667
:10164000E56800F0B7F9F6E76FF00B05F3E7F0B5E2
:1016500085B004460C980D4616461F4608B900F0A2
:10166000D1FA0B9B02930A9B0390CDE900732A46A3
:10167000334600212046FFF7BFFF05B0F0BD1FB580
:1016800000240294079C0194069C0094FFF7DFFF5E
:10169000041E05DA03F08CFB644204604FF0FF3453
:1016A000204604B010BD13B5049CCDE900341346A8
:1016B0000022FFF7E4FF02B010BD00002DE9F34760
:1016C000867FDDF828A088463146054691461F46AC
:1016D00000F078FB041E40DB0D99A86800F09AFA30
:1016E000041E06F0030611DB284600F035FC041E3C
:1016F0000CDB87B152463946284606F087FC041EAB
:1017000005DB284600F038FA041E13DA57B12846E4
:1017100000F0AAFB21E032465146284606F0DFFBE6
:10172000041EEEDAAB6B002BF1D03146284606F0F2
:101730002DFCECE70B9B0B4A00964946284600F02F
:10174000A1F8041EE2DB0C9A4146284600F0C8F8D6
:10175000041EDBDB284600F071FB204602B0BDE82A
:10176000F08700BFE51910082DE9F84F0546EFF3A3
:10177000108672B6284FDFF8A890B8463B68274C11
:10178000D9F800C001330021A24622688A420CDC4D
:101790002068C00004F0B4FD8346F8B916F0010FCC
:1017A00000D162B66FF00B0013E02268012BB8BFC6
:1017B0000123013A1A400CEB820E5CF8220050B96A
:1017C000CEF80050EB60C8F8003016F0010F00D1E1
:1017D00062B6BDE8F88F01330131D6E723685B00BC
:1017E00023600021DAF80030D9F8000003EBD3734E
:1017F000B1EB630F04DB04F06BFDC9F800B0BDE78B
:1018000050F82100DAF80020C368013A1340013192
:101810004BF82300E6E700BF201500202415002028
:101820003415002038B50446C4E905239DF810009E
:10183000E38B00F0030023F063030343C9B2E383A7
:1018400004F144022174617400250021032000F09A
:101850006BFC2046257706F003FCFFF731FE084BB2
:1018600065601A6822601A683AB9C3E90044042323
:101870002377BDE83840FFF733BE54601C60F6E7BD
:10188000181500202DE9F34105460E4617469846E7
:10189000FFF76AFF044640B99DF8203000933A46AE
:1018A000434631462846FFF7BDFF204602B0BDE85B
:1018B000F0812DE9F34105460E4617469846FFF79D
:1018C00053FF044638B9012300933A464346314654
:1018D0002846FFF7A7FF204602B0BDE8F0810000D0
:1018E0002DE9F74F324F002918BF0F463946804681
:1018F00015467430202204F018FC384604F031FC00
:10190000461C55BB2C46023406EB8401404606F0CB
:101910004FFB4FEA84090646002846D000EB090A2F
:10192000C0F800A0384604F01CFC39460446504676
:1019300004F0F3FB0134A9F108095444B346043D13
:10194000B144CB451ED100204AF8040CD8F8083029
:101950009B6ADE6003B0BDE8F08F002440F20119FD
:1019600055F824000028CED004F0FBFBD8F8343022
:10197000013006449E4215D201344C45F0D16FF03F
:101980000600E7E74BF8044F55F8041F019108469D
:1019900004F0E7FB074601992046013704F0BDFB40
:1019A0003C44CEE76FF02300D4E76FF00B00D1E7A3
:1019B000E1B4110870B50446EFF3108572B6084B18
:1019C0001E6800F043FB204600F0F8FA18B13146DB
:1019D000204606F009FB15F0010F00D162B670BD7C
:1019E0003815002010B50F4B1B689A68926AD268B0
:1019F000012040F2011452F8201049B99C69DB8B98
:101A000003F00303022B08D11146A04704F002FAA9
:101A10000130A042EFD10120F8E70146204603F053
:101A2000ECF9F8E7381500200D4B0E49002230B5CF
:101A300001201A6014465A601D6848710C605DB937
:101A400019600132082A596001F14801F4D1064BAE
:101A500000221A605A6030BD5D682960F1E700BF5E
:101A6000B8180020C0180020B018002070B5044637
:101A7000EFF3108572B6084B186820B915F0010F06
:101A800000D162B670BD83680668A34201D100F040
:101A900017F83046F1E700BFB018002060B1EFF34F
:101AA000108272B6054B1B680BB18342FBD112F05A
:101AB000010F00D162B61846704700BFB018002071
:101AC00010B5FFF7EBFF00F00BF8041E06DA03F089
:101AD0006FF9644204604FF0FF3010BD0020FCE756
:101AE000F8B5044600283FD08379012B03D9013B88
:101AF00083710120F8BD103000F04CF8EFF310872F
:101B000072B61B4E356845B1AC4217D123683360BD
:101B100073689C4201D100237360607910F0010565
:101B20001AD000232360134B1A6892B91C605C60C2
:101B300017F0010F00D162B60020DBE72B689C4252
:101B400003D13146284603F047F92D68002DF5D121
:101B5000E3E75A681460EAE717F0010F00D162B6B4
:101B6000204604F0B5FBE7E76FF01500C2E700BFC1
:101B7000B0180020B818002010B51821044606F04F
:101B800017FA20B1A3689B6A0360002010BD6FF0B4
:101B90000B00FBE738B50446EFF3108572B6F8B1D9
:101BA0008368EBB1114B1B680020E3B1A34210D155
:101BB00023681BB1DA68E1680A44DA6060B10B4956
:101BC00003F00AF90020A06015F0010F00D162B601
:101BD00038BD18461B68E8E7044803F0F3F8F1E75E
:101BE0006FF01500F0E71B68FFDE00BF101B002040
:101BF00004F06ABF024A136801331360704700BFE4
:101C0000081B0020024B1B689B68D86B704700BF05
:101C1000381500202DE9F8430D460746FFF750FC24
:101C2000DDB9FFF75DFC2846BDE8F883013455F8BF
:101C300024604FEA8408002EF8D15CB1601C80005B
:101C400004F04EFB064600B3002340F8083004F1D0
:101C5000FF3824B90025FE63E3E70024E7E755F8E1
:101C60002890484604F07DFA013004F039FB46F82C
:101C7000280080B904F18044013C06EB840454F848
:101C8000040F28B9304604F023FB6FF00B05E2E7A0
:101C900004F01EFBF3E7494604F03FFA4446D6E75A
:101CA0002DE9F8430E461446054600285DD009B1DB
:101CB0000B782BB9A4B12846BDE8F84300F05CB816
:101CC000FFF7FEFB2A4B1B689F68FB6B73B129462D
:101CD000384600F0F6FC011E08DB24B9FFF700FCD3
:101CE0002046BDE8F883384600F002FD284604F09F
:101CF00038FA0446304604F034FA2044023004F046
:101D0000EFFA804630B3D7F83C90B9F1000F2AD1F2
:101D1000082004F0E5FAD0B14C4600EB840340F80B
:101D2000248000245C601349F86333462A46404609
:101D300003F0E5F8D2E7013459F82430002BFAD14A
:101D4000A11C8900484604F0D3FA0028E5D140469A
:101D500004F0BEFAFFF7C4FB0C2403F029F804607A
:101D60004FF0FF34BCE70024E6E71624F5E700BF98
:101D700038150020EAB4110838B5114B1B68044629
:101D80009D6828B103781BB13D2104F0BBF930B147
:101D900003F00EF8162303604FF0FF3038BDFFF755
:101DA0008FFB45B12146284600F08BFC011E02DB6B
:101DB000284600F09DFCFFF793FB0020EEE700BFF4
:101DC0003815002070B506464FF4E47004F098FA18
:101DD000044678B3102004F083FA206138B304235A
:101DE000A373204600F031FC051E06DA206904F0DA
:101DF0006FFA204604F06CFA12E004F14400B4607B
:101E00000AF0E5FF2046143403F085FF012200218B
:101E1000204603F004F8002804DA02F0C9FF002588
:101E2000284670BD0121204603F02DF8F7E76FF03A
:101E30000B05DEE76FF00B05F2E700008368C26870
:101E400019690A605A6001225A73EFF3108172B661
:101E5000044A10681860136011F0010F00D162B6D7
:101E6000704700BF0C1B0020F8B584680646002CA4
:101E700052D0C06800236FF04047657BAB4220DB47
:101E8000002D47D1204600F0FAFB204600F01AFA58
:101E9000204600F075F804F144000AF0AAFF20463D
:101EA00003F05CFF204600F0F8FBEFF3108072B601
:101EB0001A4A13681BB39C4219681AD1E5B911601C
:101EC0001BE0226952F82320904210D1EFF31085D5
:101ED00072B6627B21693A4451F8222041F82320EE
:101EE000627B013A627315F0010F00D162B60133D3
:101EF000C3E71D460B46DDE7296000221A6010F09B
:101F0000010F00D162B6206908B104F0E1F9204662
:101F100004F0DEF90023B360F8BD00BF0C1B002005
:101F200038B5032105460B480BF01DFC041E0BD1F0
:101F300001210BF07EF8204602210BF07AF82846AA
:101F4000BDE8384000F00CBC01DD0BF0CFF86FF0BD
:101F5000160038BDB0AF110810B5084B81681B687A
:101F600004469868443144300AF0F8FF002804DB46
:101F70002046BDE8104000F0F3BB10BD381500202E
:101F800038B50446256A4DB904F1140000F0BBF8D9
:101F9000002811DABDE8384002F00ABF284650F8A0
:101FA000183B236200F0A8F805F10C0000F0A4F83B
:101FB000284604F08DF9E5E738BD000010B50F4B59
:101FC0001B68B3F92020002A04460ADD1A7C037C32
:101FD0009A4206D20A4900F015F80123237700201F
:101FE00010BD0649204600F00DF8022320B103225F
:101FF000227722681377F3E72377F1E7381500207B
:102000002C15002010B50B68027CB3B11C7C9442E7
:1020100006D25A6862B9C0E900325860086013E01D
:102020001B68F2E7C0E900321060486000200CE055
:10203000C0E9003210605860F8E74A68002AF1D120
:10204000C0E90033C1E90000012010BDD0E9003231
:1020500030B5F2B9057F114951F8354001EBC501A2
:102060000979090744BF016C641823609BB9047F98
:102070000A4B53F8341003EBC4031B791B0744BF0E
:10208000036CC9184A600023C0E900330364037776
:1020900030BD1360EAE75A60F5E700BF30B41108BD
:1020A00038B50D46044600B3C068FFF7DFFCE268B0
:1020B0007AB1EFF3108172B60D4B1B68013B1340F0
:1020C0000C4A1268002042F8230011F0010F00D1E1
:1020D00062B6A36B1BB12946204605F057FF204688
:1020E000FFF7C2FE204604F0F3F8002038BD00BF21
:1020F000241500203415002003881B045CBF012335
:1021000003800020704708B530B902F051FE162355
:1021100003604FF0FF3008BD03881B045CBF012340
:1021200003800020F7E70000F8B5164B17461D683E
:1021300006460C46FFF7C4F90FB16B6C3B609CB1CF
:10214000EFF3108272B6022E12D0032E15D0012E9C
:1021500015D16B6C21680B436B64002412F0010FE6
:1021600000D162B600F010F8FFF7BAF92046F8BDCA
:1021700021686B6C23EA0103EEE72368ECE76FF05C
:102180001504EBE73815002037B5174B1D68FFF72E
:1021900097F928466C6C00F0A2FCE44304400194DB
:1021A00024B9FFF79DF9204603B030BD01A800F027
:1021B00061F8431C044610D0014601A802F089FED4
:1021C0002146284600F012F8044630B1011D284689
:1021D00000F08CF8204600F027F8019B002BE5D199
:1021E000FFF77EF90120DFE73815002038B5836856
:1021F000EFF3108572B65C6B002074B122798A42CD
:1022000006D103F1340130B9084602F0DBFD04E0E9
:1022100020462468F1E702F0DFFD15F0010F00D140
:1022200062B6204638BD0000027B03466AB9EFF370
:10223000108172B602600D4A106878B9136053605D
:1022400011F0010F00D162B67047022A09D1EFF3F5
:10225000108172B600220260054AEDE75068036003
:10226000EDE7012A01D104F033B87047A818002027
:10227000A018002038B5054601242146284602F062
:1022800035FE20B90134202CF7D14FF0FF34204621
:1022900038BD38B5044600F14C05284602F092FDE1
:1022A00050B904F15405284602F08CFD38B94FF0BE
:1022B000FF32C4E9112038BD00F05EFCEDE700F00C
:1022C0005BFCF0E738B5044600F12C05284602F027
:1022D00079FD28B93434204602F074FD18B938BDB0
:1022E00000F044FBF2E7FFF79FFFF4E72DE9F84326
:1022F0000D4609780446002938D0894B4430D3F87C
:10230000008002F0F3FD0128074640F08280EFF3E1
:10231000108672B6237F062B2CD1297804F1480051
:1023200002F0E4FD30B32B68E3656B68236600239D
:10233000A364E36A1BB104F12400FFF72BFCD4E98A
:102340000032AAB977490B6003B9764B5A60002373
:10235000C4E900332046FFF731FE18B1414620465C
:1023600005F042FE16F0010F00D162B60026B4E07F
:102370001360E9E716F0010F00D162B6A46829786E
:10238000EFF3108272B6636B13B11879884209D1EA
:1023900012F0010F00D162B633B12A685A606A6840
:1023A0009A60E3E71B68EFE75F4B1B68D3B15F48B8
:1023B00002F008FD20B95E4802F004FD0028D5D0E7
:1023C0002B6843606B688360EFF3108372B6002262
:1023D0000260626BD2B96063A06313F0010F00D199
:1023E00062B6C3E7EFF3108672B6504802F0EAFC1B
:1023F00016F0010F00D162B60028E1D1102003F0E1
:102400006FFF0028B2D001230373D9E7A26B1060DD
:10241000E2E7FFF755F82978A06800F076FB06465A
:1024200000282AD04068002826D000F07FFB034611
:10243000002858D072684260B1688160F2689206E4
:1024400004D42878012282400A439A602A68DA601C
:102450006A681A61EFF3108672B600221A60E26CA5
:10246000002A3DD1E36433492365204605F028FE68
:1024700016F0010F00D162B60026FFF731F8EFF336
:10248000108972B6237F062B1ED12B68E3656B681B
:1024900023660023A364E36A1BB104F12400FFF761
:1024A00079FBD4E900320ABB1E490B6003B91D4B0E
:1024B0005A600023C4E900332046FFF77FFD18B1BE
:1024C0004146204605F090FD19F0010F00D162B69B
:1024D000002F0DD001DA6FF015063046BDE8F88305
:1024E000226D1360BFE76FF00B06C6E71360DDE7F0
:1024F000EFF3108572B6237F052B03D1042120460C
:1025000000F00EFA237F073B012B03D8042120465D
:1025100000F0B0F915F0010F00D162B6DDE700BFA1
:10252000381500204415002094130020A81800201E
:10253000A01800206125100838B505460C4600F0AB
:10254000CFF930B1806840B12146BDE8384000F095
:1025500067B9284600F0F0F8F5E76FF0020038BDE3
:102560002DE9F74F044602F023FCB4F9227003680A
:10257000019304F14C0904F1540AEFF3108872B688
:10258000E38B13F4007B1FFA88F60BD016F0010FD3
:1025900000D162B602F00CFC019B0360678403B0BB
:1025A000BDE8F08F484602F00DFC05460028EDD04E
:1025B000E38B43F40073E383C0F800B0636D002B3A
:1025C00035D16065A565D4F844B0AE684BEA06061F
:1025D000666418F0010F00D162B600226B68287B98
:1025E00005F10C019847EFF3108872B6E28B616C2D
:1025F00022F40072E2834E4081EA0B02164086EA22
:102600000B066664666D46B1AE4213D12A686265F8
:10261000A26DAA4201D10022A26518F0010F00D1DB
:1026200062B6FFF7B1FD284600F0A6FAA5E7A36D54
:102630001860C7E73268AA4203D15146304602F01B
:10264000CBFB3668002EF5D1E7E738B505464020CC
:1026500003F056FE044678B10122002102F0DFFBB0
:10266000002804DA02F0A4FBAC62002038BD01218E
:10267000204602F008FCF7E76FF00B00F6E710B514
:10268000846A2046FFF73FFD002801DA02F090FB44
:102690002046BDE8104003F01BBE38B5C36B0446AE
:1026A0006BB90023E36338BD03F012FEE36B5859A6
:1026B00004350028F8D1184603F00AFEF1E700259A
:1026C000F4E770B5C46B84B1002054F8203063B1D6
:1026D0004A1E013B12F8016F13F8015FAE42F9D0B8
:1026E0000EB93D2D03D00130EFE76FF0010070BD52
:1026F00070B5C36B054653F821000C4603F0E8FDA6
:10270000621CEB6B53F8221003EB820343F8041CAA
:10271000E86B50F8226021461446002EF0D1012AC1
:1027200003D103F0D5FDEE6370BD0231890003F0E3
:10273000DFFDE863F8E700000346EFF3108272B6AE
:102740000649086810B14168994204D112F0010F9E
:1027500000D162B670470068F4E700BF0C1B002090
:1027600010B5002304460246012118460BF0ADFCCB
:1027700022460023062101200BF0A7FC002322465D
:10278000062102200BF0A1FC002010BD70B50C4604
:1027900000F0A6F8064610B90025284670BD63680B
:1027A00003B96060236806F14800197802F09EFBC7
:1027B0000128054623D0236806F14400197802F069
:1027C00095FB0028E8D12369002BE5D1E368B342EB
:1027D000E2D0A36803B9A6602368B068197800F056
:1027E00094F90028D8D021683046FFF77FFD051EF8
:1027F000D3DBE5682661003D18BF0125CDE7E3681E
:10280000002BD8D121683046FFF770FD002804DB8B
:102810002369E660002BC0D1CDE70546BDE7000087
:1028200030B587B000230446CDE90233CDE9043347
:102830000D460191FEF744FE20460D4901AA00F025
:10284000C1F9041E0BDB049B4BB9059B3BB90398F4
:1028500008B9029840B12946FFF748FD0446FEF743
:102860003FFE204607B030BD6FF00904F7E700BF18
:102870008D27100870B5027F184B072A1E68036C5D
:1028800004460D461BD15A8A013A5A82D0E90020EB
:1028900088B91A608AB958600023C4E900332364F8
:1028A00065842046FFF78AFBB0B131462046BDE87B
:1028B000704005F099BB0260ECE75060ECE71A8AC3
:1028C000013A1A82D0E9002020B99A60002AF4D196
:1028D000D860E1E70260F9E770BD00BF381500205D
:1028E0000346EFF3108172B60B4A106860B1002BFB
:1028F0000FDB0A4A1268013A1A4050F8220018B158
:10290000C2689A4218BF002011F0010F00D162B6D0
:1029100070470020F8E700BF341500202415002080
:1029200070B5114B0446006C1E68038801331BB25E
:102930000380D4E900320D468AB943608BB98260C6
:102940000023C4E90033236465842046FFF736FB87
:1029500048B131462046BDE8704005F045BB1360E4
:10296000ECE75A60ECE770BD38150020EFF31082F9
:1029700072B600230360064B196831B918605860BD
:1029800012F0010F00D162B6704759680860F6E78F
:10299000881800202DE9F84F474B1B681F289D68B9
:1029A00080460F46164600F282800146284600F017
:1029B000ACF8044636B1E8B14368336083687360AD
:1029C000C368B36027B3D7F80090B9F1000F22D1E4
:1029D000002C6FD0EE6AC6B1A6420FD02C353368FA
:1029E000A34203D12946304602F0F6F93668002E9C
:1029F000F5D10AE0C6E90000B060E3E72368EB62C6
:102A00002B6BA34201D1C5F830902046FFF7AEFFF3
:102A10000020BDE8F88FBCB9EFF3108672B62748E6
:102A200002F0D0F9044616F0010F00D162B6DFF8CB
:102A30008CA000267CB1002384F810802360EB6A10
:102A4000002B31D1EC622C63C4F804907B68A36046
:102A5000BB68E360DCE7502003F042FCA0B1EFF379
:102A6000108172B600F15004DAF80030024640F8E6
:102A7000146BABB9CAF80020A042CAF80420F3D105
:102A800011F0010F00D162B6EFF3108B72B6504611
:102A900002F098F904461BF0010F00D162B6C9E7B5
:102AA000DAF804301A60E7E72B6B1C60CBE76FF0B5
:102AB0001500AEE72046ACE7381500208818002046
:102AC00010B50023FFF766FF041E06DA02F070F966
:102AD000644204604FF0FF3010BD0020FCE737B5C2
:102AE000002283680192EFF3108572B65C6B34B9F3
:102AF00015F0010F00D162B6019803B030BD217905
:102B000001A802F0CDF92468F1E738B50D46044676
:102B100040B1FEF7D5FCE46A14B1237CAB4203D18B
:102B2000FEF7DEFC204638BD2468F5E710B50F4BF4
:102B30001B6843B10E4802F045F9A8B9BDE8104042
:102B40000C4802F03FB9EFF3108472B6084802F067
:102B500039F914F0010F00D162B628B9182003F03A
:102B6000BFFB08B10123037510BD00BF9413002003
:102B70009018002098180020027D03466AB9EFF3F0
:102B8000108172B602600D4A106878B91360536004
:102B900011F0010F00D162B67047022A09D1EFF39C
:102BA000108172B600220260054AEDE750680360AA
:102BB000EDE7012A01D103F08BBB7047901800208C
:102BC00098180020F8B5447B05460E461746013C90
:102BD00001D2002006E02B69394653F82400B047A3
:102BE0000028F4D0F8BD08B501F080FC00F0CEFD5F
:102BF000BDE8084000F0ECBD012380F85C30002007
:102C0000704710B440F605348068A142806907D04F
:102C100040F60634A14211D0036810BC5B69184726
:102C2000EFF3108372B690F8312080F8302013F063
:102C3000010F00D162B6002010BC7047EFF3108284
:102C400072B690F8313090F83000181A83B212F052
:102C5000010F00D162B60028EEDA03F1080000B2DD
:102C6000EAE710B583689869EFF3108472B622B36F
:102C70004B68DB0727D5036E5BB1436E43B100237E
:102C80008B616FF00F0014F0010F00D162B610BD20
:102C90000123183340F8231000EB83038B6190F875
:102CA000302090F831309A4201D10020EBE7012228
:102CB000022160300AF07AFDF7E78B69002BF4D02F
:102CC0001A608A61F1E76FF02200DCE7554B53434D
:102CD000B3F1333F2DE9F34780468946164647D97D
:102CE000910747D0504B5343B3F1553F44D9F207B6
:102CF00044D5012E0CBF01250525B54200F28F8079
:102D0000D8F808309C69EFF3108772B604F1240AF2
:102D100094F8302094F831309A4231D0002249465C
:102D20004FF0050C4FF0330E904610462A44B24245
:102D300094F830902CD84FEA89034B44012D23445A
:102D40003ED1D3F833301B160B7094F8303001337A
:102D5000DBB2072B94BF84F8303084F8308094F8CD
:102D6000300094F8313098422944DED110460FE00B
:102D70000525C2E70425C0E70325BEE70225BCE719
:102D800094F85C305BB1002384F85C306FF0040091
:102D900017F0010F00D162B602B0BDE8F087D8F895
:102DA00000305B0638D4637A0133637250460FF00B
:102DB00047F8637A002803F1FF336372A8DAE7E784
:102DC000022D04D1D3F833301B140B80BDE7032D43
:102DD00093F832A001F1010007D181F800A0D3F8E7
:102DE00033301B14A1F80130AFE7042D0DD1D3F817
:102DF000333081F800A01B120193BDF804909DF8B8
:102E00000630A0F8009083709FE71CFB09E381F86F
:102E100000A0E358036098E76FF00A00B8E70020CD
:102E2000BAE700BFCDCCCCCCABAAAAAA10B5044659
:102E300020460FF045F8002807DA01F0B9FF0068D6
:102E40000428F5D07D28F3D0404210BD38B590F865
:102E500031300446581C082894F83050A8BF002090
:102E6000854216D003EB8303234483F83210C3F862
:102E70003320022184F83100012204F160000AF0BD
:102E800095FC607A20B104F124000FF083F8002053
:102E900038BD6FF00B00FBE708B50FF0A3F8002872
:102EA00003DA01F085FF0068404208BDF8B5836889
:102EB0009C6904F10C052846FFF7B8FF061E07DBE6
:102EC000237A012B06D9013B23722846FFF7E4FF42
:102ED0003046F8BD00232372EFF3108772B62368E3
:102EE0002046DB68984717F0010F00D162B6ECE787
:102EF0002DE9F04183689D6905F10C073846FFF71D
:102F000095FF041E1FDB2E7A013616F0FF061DD03A
:102F1000012E14D1EFF3108872B62B6828469B68F7
:102F20009847044638B92B68288685F85C001B69E9
:102F300031462846984718F0010F00D162B62E722C
:102F40003846FFF7A9FF2046BDE8F0816FF017046F
:102F5000F6E700002DE9F0410B680C461B681C49A0
:102F6000074620469847051E2ADB002504F1240861
:102F70002A4629462572404604F10C0601F048FF16
:102F800001222946304601F04AFFA8421BDA01F02F
:102F90000FFF236820465B6898470E4923464FF48D
:102FA000927238460BF019F9051E09DA4046FFF710
:102FB000A3F83046FFF7A7F8002801DA01F0F8FE81
:102FC0002846BDE8F0810121304601F05CFFE0E7D2
:102FD000F0B41108F8B4110810B5044620460EF0FC
:102FE0006FFF002807DA01F0E3FE00680428F5D03F
:102FF0007D28F3D0404210BD082807D90938C0B257
:10300000062802D0024B185C70474020704700BF72
:1030100018B51108032A2DE9F74F0E46174671D946
:103020008368C5689B69EFF3108272B6ADF806201D
:103030002A7D2AB1DA7842F00102DA7000222A757C
:10304000DA78FAB10B2F4FF0000012D90222727019
:10305000B278B06022F03F0242F02802B270F278FB
:10306000307060F341027060F270DA787272D8707A
:103070000C20BDF8063013F0010F00D162B603B08A
:10308000BDE8F08F036805F108085B0640462FD5C0
:103090000EF02AFF0028ECDB6A7DAB7D9A42E8D077
:1030A0004FF0000A4FF04409D3466A7D09FB0250F5
:1030B0000F23407E19FB023118404144FFF79CFF6B
:1030C000043054468244BA4515D80246301903F0FC
:1030D00003F86A7D0132D2B2072A94BF6A7585F877
:1030E00015B0697DAA7D9142DFD154462046C0E7E4
:1030F0000EF0A6FECEE7AB7D9342F7D040460EF031
:1031000049FFF3E70020BAE72DE9F04190F83020BD
:1031100090F832309A42044609D1D0F89432002116
:103120001B6998476FF004052846BDE8F0816FF0F1
:103130000F05002644274FF0330894F8311094F817
:103140003220D4F89432914218D01B6A2046984716
:10315000A0B194F831104B1CDBB2072B98BF84F858
:103160003130D4F8943288BF84F8316017FB018184
:10317000DB69214420469847051EDEDAD4F89432F4
:1031800001211B6920469847CEE72DE9F04F83685F
:1031900085B08046894601929C69EFF3108372B630
:1031A000ADF80A30D4F8943220465B6A984700257F
:1031B000064604F1240A4FF0440B019B5B1B032BD2
:1031C00004D856B32046FFF79FFF26E094F83270EC
:1031D0000137082FA8BF002794F83030BB4214D025
:1031E00009EB0501887800F00F00FFF705FF021DCD
:1031F00094F8320003920BFB00A00F3002F06CFF3A
:10320000039A84F832701544D7E7D8F800305B068B
:103210000DD5002D08BF6FF00A05BDF80A3013F078
:10322000010F00D162B6284605B0BDE8F08F16B197
:103230002046FFF769FFA3780133DBB2A370504645
:103240000EF0FEFDA378013BDBB20028A37006DB85
:10325000D4F8943220465B6A98470646BCE7054698
:10326000DBE708B50EF0BEFE002803DA01F0A0FD92
:103270000068404208BD2DE9F34783689C69894690
:103280009246002C71D000296FD0EFF3108872B6EF
:1032900004F11807C6683846FFF79EFE051E10DBCE
:1032A000BAF1000F58D0D4F89C329BB1D4F8A032B8
:1032B0007BB10023C9F818306FF00F053846FFF7CF
:1032C000D0FF18F0010F00D162B6284602B0BDE869
:1032D000F087012303F1A60204EB8202A73304EB7B
:1032E0008303C2F80490C9F81830A3780133DBB225
:1032F000A37004F1240528460EF0A2FD0028FADB95
:10330000A37894F8322094F830900132013B082AD7
:10331000DBB2A8BF0022A3702846914514BF4FF02E
:1033200004094FF000090EF035FE01A906F108006E
:1033300001F088FD051EC4DB019B002B05DD727DBD
:10334000B37D9A4218BF49F001094A46022104F5AB
:1033500027700AF02BFAB1E7D9F81830002BADD05E
:10336000C3F800A0C9F818A0A8E76FF01205ACE7F1
:10337000F8B583689C6904F10C0705463846FFF7E9
:103380002BFE061E38DBA0684368221D90420AD03F
:10339000E968814232D1D0E900231A60D0E90032D5
:1033A0005A6002F095FF0023EB6021780139C9B221
:1033B0002170F1B9D4F89432164DDB682046984755
:1033C00094F8302094F832309A421AD1114DD4F842
:1033D000943220465B6A9847B8B1EFF3108572B615
:1033E000D4F8943220469B68984715F0010F00D11D
:1033F00062B63846FFF735FF3046F8BD18465B68C1
:10340000C4E728460EF06AFEDAE728460EF066FEAC
:10341000DDE700BF20A107002DE9F34183689C6927
:1034200041F60133994216464BD1EFF3108572B63F
:103430004FF0000804F5157701A9384601F002FDA8
:10344000002811DB019B7BB904EB0818B368C8F8AE
:10345000603263780133637077B915F0010F00D1E2
:1034600062B602B0BDE8F08108F10108B8F1040FBE
:1034700007F11007E0D1F0E7D4F894329B69D3B19B
:10348000B268118840F2FE72914217D820469847E0
:103490000028E2DB71680E4B01F5F42101F5907113
:1034A00091FBF3F133684FF47A7202FB0311384653
:1034B0000EF034FDD1E76FF02500CEE76FF0150078
:1034C000CBE7D4F8943220465B699847C9E700BF40
:1034D00040420F002DE9F84383689D6905F10C0710
:1034E00006463846FFF778FD041E42DB2B78FF2B9B
:1034F00042D0EFF3108872B62B788BBBD5F894329C
:1035000028465B689847044660BBD5F89432288605
:1035100085F83200DB680121284698472B78013373
:103520002B70346814F001041CD04FF40E7002F0BC
:10353000E7FE002481464475847522462146083002
:1035400001F066FCC6F80C90AB68C9F804302B1D7E
:10355000C9F80030AB68C3F80090C5F8089001E0E6
:10356000002CDBD018F0010F00D162B63846FFF70F
:1035700078FE2046BDE8F8836FF01704F6E738B50B
:1035800001220021054601F04AFC041E05DA01F083
:103590000FFC04686442204638BD0121284601F032
:1035A00072FCF8E72DE9F0410C46231D0021C4E927
:1035B00001332180A170E1700122064604F124004C
:1035C00001F026FC04F10C00FFF7D9FF04F118000C
:1035D000FFF7D5FF04F5157504F525770022284679
:1035E0001146103501F014FCBD42F7D1D4F89432E5
:1035F00020461B689847234630460349BDE8F04102
:103600004FF4DB720AF0E9BD20B511082DE9F04F47
:10361000437885B004460E46174663B3002504EB95
:10362000051303F5157903A94846D3F8608201F024
:1036300009FC00281CDB039B002B19DAB3789B06DE
:1036400016D4B8F8002033889A4211D1336848F86C
:10365000033BB07800F00F00FFF7CEFC05463B18A7
:103660009F4219D16378013B637048460EF092FC8B
:103670000135032DD3DDA568231DD5F804A00193E2
:103680006FF00B004FF0010904F52774019B9D4278
:1036900007D105B0BDE8F08F17F8011B08F8011F2E
:1036A000DEE7AB7D6A7D03F1010BBBF1080FA8BF1C
:1036B0004FF0000B5A452CD003EB031205F108081C
:1036C000910008EB82023068C2F80F00B07800F079
:1036D0000F00FFF791FC024601F113004044394608
:1036E00002F0FAFC85F816B00122022120460AF009
:1036F0005DF8002503A94046039501F0A3FBA8420D
:103700000DDB039AAA4202DC40460EF043FC284639
:1037100001E085F814905546DAF804A0B6E76FF09A
:103720001500B6E710B590F8303090F832209A4284
:10373000044618D00133DBB2072B88BF002380F882
:103740003030FFF7E1FC04F52770042202210AF073
:103750002DF8A37803F0FF003BB104F12400BDE88D
:1037600010400EF017BC6FF0010010BD0020704734
:103770001046704707B5019122B10522012101A829
:103780000AF014F8002003B05DF804FB0349044874
:1037900000234FF4DB720AF020BD00BF4CB51108C6
:1037A00040B511081046704707B5019122B10522B6
:1037B000012101A809F0FAFF002003B05DF804FB25
:1037C00010B508461446002102F094FC204610BDB6
:1037D0000349044800234FF4DB720AF0FEBC00BF2B
:1037E00078B511086CB511082DE9F843C4680F4687
:1037F00015461E46002C36D098462368D0F8109007
:103800001B680121204698472368DB6813B100211B
:1038100020469847236815499B68204698472368A7
:1038200001225B68494620469847236847F080019B
:103830009B69204698472E44AE4223680CD15B68B2
:103840004946204600229847236800211B682046ED
:1038500098474046BDE8F8839B69FF21204698477A
:1038600005F8010BE8E76FF01208F2E740420F009D
:1038700000207047F7B5836808460D469E6902F040
:1038800070FC2E4902462B46062002F08FFC2C4984
:103890000922284602F010FC074630B929490620C3
:1038A00002F084FC384603B0F0BD274902222846C6
:1038B00002F002FC00283BD1284602F052FC052809
:1038C0002DD8EB78A3F13004E4B2092C06D9A3F18A
:1038D0004102052A2AD8A3F13704E4B2AB78A3F158
:1038E0003001C9B2092917D9A3F14102052A1DD80F
:1038F000373B04EB0314E4B20DF107022146012328
:103900003046FFF771FF9DF8073010490746224601
:10391000062002F04BFCC5E704EB0114EBE70C4971
:10392000062002F043FC6FF01507BBE70949F7E7F3
:10393000284602F06BFAC4B2DEE700BF98B5110862
:10394000ADB51108B7B51108CFB5110813B61108F8
:10395000D2B51108F5B5110810B5044620460EF091
:10396000AFFA002807DA01F023FA00680428F5D03E
:103970007D28F3D0404210BD08B50EF033FB00287F
:1039800003DA01F015FA0068404208BD7FB583688C
:103990009D6928460E46FFF7DFFF0E236A461D216C
:1039A0002846FFF721FF044620B10246694630460B
:1039B00002F092FB2846FFF7DFFF204604B070BDFF
:1039C00038B583689C6900252046FFF7C5FF65620E
:1039D0002046FFF7D1FF284638BDFFF7F1BF08B5F5
:1039E000FEF791FB002803DA01F0E2F9006840429B
:1039F00008BD0000F8B5C4680E461546002C2DD051
:103A0000236807691B680121204698472368DB6803
:103A100013B1002120469847236812499B6820462D
:103A20009847236801225B683946204698472368F7
:103A300031469B6920469847236829469B69204662
:103A40009847236800225B683946204698472368D8
:103A500000211B68204698470120F8BD6FF0120036
:103A6000FBE700BF40420F0073B506460D46002934
:103A700000F0E880282002F033FC0446002800F023
:103A8000E4802822002102F035FB0122002120469B
:103A900001F0C5F9002813DA01F08AF995E803006E
:103AA00004F10C0383E8030078B96FF01505204694
:103AB000FFF795FF204602F00BFC284602B070BDD0
:103AC0000121204601F0DFF9E8E72046FFF744FF37
:103AD000FF238DF807300DF10702012375212046E1
:103AE000FFF782FE9DF80730472B40F0A880584929
:103AF000052002F05BFB002276212046FFF77AFFCB
:103B0000012276212046FFF775FF52480EF0E6FAB3
:103B1000012276212046FFF76DFF02227A212046FE
:103B2000FFF768FF002276212046FFF763FF40225F
:103B300016212046FFF75EFF01230DF107026521E4
:103B40002046FFF751FE002265212046FFF752FF75
:103B5000002260212046FFF74DFF0222612120460E
:103B6000FFF748FF9DF8072065212046FFF742FF39
:103B700063225F212046FFF73DFF362214212046B5
:103B8000FFF738FF01230DF1070265212046FFF7FB
:103B90002BFE9DF80720652142F0040220468DF897
:103BA0000720FFF727FF01230DF1070250212046D0
:103BB000FFF71AFE9DF80720502142F02902204607
:103BC0008DF80720FFF716FF01230DF107024F21A3
:103BD0002046FFF709FE9DF807204F2142F02902F9
:103BE00020468DF80720FFF705FF01230DF107029E
:103BF0004E212046FFF7F8FD9DF8072022F0200215
:103C000042F00F024E2120468DF80720FFF7F2FE0A
:103C10004FF47A700EF062FA2046FFF7ADFE0E49BF
:103C200023464FF4DB7230460AF0D7FA051EFFF642
:103C30003EAF0A49062002F0B9FA00253DE74FF0F1
:103C4000FF3534E76FF0150537E76FF00B0534E704
:103C50002DB61108A08601005CB6110842B6110805
:103C600070B504460D46636E20469B6A984700284F
:103C7000F9D0636E294620461B6ABDE8704018479C
:103C800010B5044620460EF01BF9002807DA01F0B3
:103C90008FF800680428F5D07D28F3D0404210BD8D
:103CA0002DE9F84FB0F84050B0F944302DB201354D
:103CB00004460F469046AB42D8BF00254FF0010B9B
:103CC00000F10409B4F842301BB2AB420AD0B4F898
:103CD0004030A26C1BB22DB2D7540020A4F8405043
:103CE000BDE8F88FB8F1000F22D0EFF3108A72B65A
:103CF000B4F842301BB2AB4218D1636E84F801B005
:103D00005B6A01212046984748460EF099F8636E99
:103D100006465B6A0021204698471AF0010F00D141
:103D200062B6002ECEDA6FF00300D9E70026F4E782
:103D30006FF00A00D4E708B50EF054F9002803DA52
:103D400001F036F80068404208BD2DE9F843836869
:103D50009C690D469046002C60D000295ED004F18D
:103D600028073846FFF78CFF061E41DBB8F1000F2D
:103D70004CD004F16C020023904652F8041B002939
:103D800039D104EB83021B3304EB830304F13409C0
:103D9000D5664846AB61FFF773FFB4F84020B4F92D
:103DA0004430B4F8425012B201329342D8BF0022DC
:103DB00048462DB204F14C09954214BF0425002554
:103DC000FFF7B9FF4846FFF75BFFB4F85820B4F897
:103DD0005A3012B21BB29A4215D14846FFF7ABFFD8
:103DE0002A460421404609F0E1FC3846FFF7A3FFCC
:103DF0003046BDE8F8830133042BBED10023AB610C
:103E00006FF00F06F1E745F00105E6E7AB69002B1F
:103E1000EBD0C3F80080C5F81880E6E76FF0120613
:103E2000E6E72DE9F04183689E6906F11C05284606
:103E3000FFF726FF041E18DB3378013313F0FF076A
:103E40002BD0012F27D1EFF3108872B6F3787BB90E
:103E5000736E30461B689847041E09DA18F0010F8C
:103E600000D162B62846FFF766FF2046BDE8F08124
:103E7000736E30469B689847041E736E03DA5B6866
:103E800030469847EAE79B6901213046984718F089
:103E9000010F00D162B63770E4E76FF01704E1E775
:103EA0002DE9F74F836801929C6904F14C0906469D
:103EB00048460D46FFF7E4FE071E0FDB00274FF0D4
:103EC000010A04F1100B019B9F420BD3626E204646
:103ED0009269012190474846FFF72DFF384603B00D
:103EE000BDE8F08FB4F85A20B4F8581010B209B2F7
:103EF00081420ED0216E0132095CB4F95C0012B22D
:103F00009042D8BF0022A4F85A20013705F8011BBF
:103F1000D9E7002FDAD1B368002B3DD0336813F016
:103F200040073CD1EFF3108872B6626E3946926951
:103F300020469047B4F85810B4F85A2009B212B28B
:103F400091421FD1626E0121926920469047B4F8D8
:103F50005810B4F85A2009B212B2914204D018F0A5
:103F6000010F00D162B6AEE784F802A058460DF00A
:103F700067FF18F0010F00D162B60028A3DA6FF0D6
:103F80000307A3E718F0010F00D162B6626E0121AA
:103F900092692046904796E76FF04C0796E76FF0DE
:103FA0000A0793E72DE9F84F83689D69374B1B6833
:103FB00080460F46164673B1EFF3108872B607EBD2
:103FC0000609B94524D118F0010F00D162B6344674
:103FD0002046BDE8F88F0DF0AFFE81460028EBD1FA
:103FE00005F1340A5046FFF74BFE041EF0DBD8F80B
:103FF000003083F040086B6E49465B6A284698475C
:10400000C8F38018B146B9F1000F10D134461DE055
:10401000EB7817F8014B2BB10A2C03D10D21284660
:10402000FFF71EFE21462846FFF71AFEC9E7EB7888
:1040300017F801BBDBB9424659462846FFF730FE68
:10404000041E1FDAB14501D2A6EB0904B5F84020E1
:10405000B5F8423012B21BB29A4204D06B6E012105
:104060005B6A284698475046FFF765FEB0E7BBF10C
:104070000A0FE0D142460D212846FFF711FE041E2B
:10408000D9DADFE709F1FF39BDE700BF941300205B
:104090002DE9F04700F13406044630460F46FFF79D
:1040A000EFFD051E2EDBEFF3108972B600254FF0F1
:1040B000010A04F10408B4F84020B4F8423012B206
:1040C0001BB29A4211D0636E84F801A05B6A012191
:1040D0002046984740460DF0B3FE636E05465B6A86
:1040E000002120469847002DE5DA19F0010F00D194
:1040F00062B6114B002DD3F80080994605DA3046A0
:10410000FFF719FE2846BDE8F087636E2046DB6A9C
:1041100098470028F3D14FF47A700DF0DFFFD9F8FB
:104120000030A3EB0803BB42EFD33046FFF703FE9A
:104130006FF06D05E6E700BF081B002038B50122CF
:104140000021054600F06BFE041E05DA00F030FE8B
:1041500004686442204638BD0121284600F093FEE1
:10416000F8E7000070B50C46054601F13400FFF792
:10417000E5FF04F14C00FFF7E1FF04F11C00FFF73D
:10418000DDFF00221146201D00F042FE00221146F4
:1041900004F1100000F03CFE04F12800FFF7CEFF10
:1041A000234628460349BDE870404FF4DB720AF00D
:1041B00014B800BF7CB6110810B5044601220421D2
:1041C0006C3009F0F3FAA3783BB10023A37004F13B
:1041D0001000BDE810400DF0DDBE10BD10B504228A
:1041E000044611466C3009F0E1FA637833B10023DC
:1041F0006370201DBDE810400DF0CCBE10BD70B541
:1042000083689C69636E1B690E46154653BB40F27A
:1042100007339E422BD0B6F5427F0ADAB6F58A7F85
:104220006CD040F215139E4200F081806FF01800B0
:1042300070BD3FD040F209339E42F7D1EFF31080BA
:1042400072B6B4F84020B4F8423012B21BB29A42AF
:104250004ADAB4F84230B4F840201BB212B29B1ACA
:10426000013B16E0984710F1190FE1D1CFE7EFF3CA
:10427000108072B6B4F85A20B4F8583012B21BB29B
:104280009A420DDCB4F85830B4F85A201BB212B27E
:104290009B1A10F0010F00D162B62B600020C7E717
:1042A000B4F85A20B4F85810B4F95C3012B209B21C
:1042B000521AEDE7EFF3108072B6B4F84220B4F86A
:1042C000403012B21BB29A4205DCB4F84030B4F868
:1042D00042201BB2DBE7B4F84220B4F84010B4F936
:1042E000443012B209B2E3E7B4F84020B4F8421007
:1042F000B4F9443012B209B2521AB0E7EFF31086A3
:1043000072B635F0020304BFB4F85830A4F85A303E
:10431000013D012D06D8B4F84030A4F842302046C3
:10432000FFF75CFF16F0010F00D162B6B6E720463A
:1043300042F21071BDE87040FFF7AABE10B500212F
:10434000044604300DF061FE002104F110000DF070
:104350005CFE012104F134000DF057FE012104F14F
:104360004C000DF052FE04F128000121BDE8104080
:104370000DF04BBE70B583689C6904F11C060546C0
:104380003046FFF77DFC2378012B06D9013B2370D3
:104390003046FFF7D0FC002070BD636E0021217015
:1043A0009B69204698472B685B0604D44FF47A61DA
:1043B0002046FFF76DFEEFF3108572B6636E204660
:1043C000DB689847E3781BB9636E20465B689847C3
:1043D00015F0010F00D162B62046FFF7EDFE204632
:1043E000FFF7ACFFD4E7F8B5002504462F46B4F834
:1043F0004020B4F8423012B21BB29A42AEB212D18F
:10440000B4F84020B4F8423012B21BB29A4204D140
:10441000636E00215B6A2046984716B32046BDE8CC
:10442000F840FFF7DBBE636E20469B6A9847002882
:10443000E6D0B4F84230A16C626E1BB2126AC95C5D
:1044400020469047B4F84230B4F9442001331BB2FF
:104450009A42A4F8423005F10105D8BFA4F8427091
:10446000C5E7F8BD2DE9F341B0F85850B0F95C301C
:104470002DB201350446AB42D8BF002500261FFAF5
:1044800086F8636E2046DB69984740B9B8F1000FA3
:1044900002D02046FFF790FE02B0BDE8F081B4F8EC
:1044A0005A70636E3FB25B6901A920469847AF42DC
:1044B000E7D0B4F85830226E1BB20136D0542BB27C
:1044C000A4F85830B4F95C300135AB42D8BF0025B0
:1044D000D5E7000008B5044B186818B103689B685D
:1044E00003B19847002008BDAC02002008B500F0D9
:1044F00003F8002008BD000010B508484FF4D27240
:10450000022100F041FC044630B100F0BBFA18B1C2
:10451000204600F04BFB0024204610BDBDAF110823
:104520000020704710B5044620460DF0C9FC002855
:1045300007DA00F03DFC00680428F5D07D28F3D0B0
:10454000404210BD08B50DF04DFD002803DA00F023
:104550002FFC0068404208BD2DE9F84383689D693F
:1045600005F104084046D5F834900E461746FFF78B
:10457000D9FF041E2DDB6FF44063F318032B45D8DD
:10458000DFE803F002182A3905F110016B783A468A
:104590000B4607F1240052F8046B43F8046B824287
:1045A000F9D16B7893B1D9F8003048469B689847A9
:1045B00004460BE005F110033A4605F1340153F8C7
:1045C000040B42F8040B8B42F9D16B784046FFF79D
:1045D000B9FF2046BDE8F8836B786B78F3B9686B58
:1045E000036805F110019B68984704460028EDD147
:1045F00001236B70EAE76B78002BE7D0D9F8003025
:104600004846DB68984700230446F2E7D9F80030B3
:104610003A461B69314648469847C9E70024D5E722
:1046200038B583689C69251D2846FFF77BFF002865
:1046300008DB2378012B06D9013B23702846FFF7BE
:1046400081FF002038BD606B0023237003685B6826
:104650009847F3E7F8B583689E69371D3846FFF73A
:1046600061FF041E0BDB3578013515F0FF050FD017
:10467000012D06D0357000243846FFF763FF204631
:10468000F8BD706B03681B689847041EF2DAF3E705
:104690006FF01704F0E70020704700002DE9F041AB
:1046A000054638200E4601F02BFE0446C0B1071D1A
:1046B00001220021384600F0B2FB00280BDA00F09E
:1046C00077FB6663234628460749BDE8F0414FF46F
:1046D000DB7209F082BD0121384600F0D4FBF0E71F
:1046E0006FF00B00BDE8F0819CB611080020704708
:1046F0004FF0FF30704710B5044620460DF0E0FB48
:10470000002807DA00F054FB00680428F5D07D2863
:10471000F3D0404210BD08B50DF064FC002803DA68
:1047200000F046FB0068404208BD00002DE9F04162
:1047300084681A480D46164600F0F8FBA769D7F8BA
:10474000108004373846FFF7D6FF041E15DB41F210
:1047500002339D4214D041F203339D4214D041F202
:1047600001339D4214D1D8F800309B683146404651
:10477000984704463846FFF7CEFF2046BDE8F08153
:10478000D8F80030DB68F1E7D8F800301B69EDE7B6
:1047900032462946024800F0C9FBEBE7D4B61108BF
:1047A000BCB6110838B583689C69251D2846FFF7FB
:1047B000A2FF002808DB2378012B06D9013B2370D8
:1047C0002846FFF7A8FF002038BD2069002323708A
:1047D00003685B689847F3E7F8B583689E69371DFF
:1047E0003846FFF788FF041E0BDB3578013515F0DE
:1047F000FF050FD0012D06D0357000243846FFF795
:104800008AFF2046F8BD306903681B689847041E7C
:10481000F2DAF3E76FF01704F0E700002DE9F0415A
:10482000054614200E4601F06BFD0446C0B1071D7D
:1048300001220021384600F0F2FA00280BDA00F0DD
:10484000B7FA2661234628460749BDE8F0414FF4F0
:10485000DB7209F0C2BC0121384600F014FBF0E71E
:104860006FF00B00BDE8F081E8B6110838B50446DA
:104870000D46104672B16368002B0CDCA368986982
:10488000036B1B689847002804DB2B78012030332A
:104890002B70606038BD0020FCE708B5836898691C
:1048A0000378033B012B0FD88AB10B78302B09D04A
:1048B000312B0ED10121036B5B6898470028A8BFFC
:1048C000012008BD0021F6E76FF00C00F9E7104663
:1048D000F7E76FF01500F4E70346501E012804D9EE
:1048E00052EA010004D1586070476FF0250070470C
:1048F0006FF015007047000070B5A1F50C5183688A
:1049000001399C691546052977D8DFE801F00310C5
:10491000171B42622378033B012B74D8236B111EB3
:104920005B6818BF01212046BDE870401847236B23
:104930001B6829462046BDE870401847237813704D
:1049400000203BE0002A5ED02378042B5BD90DF0D9
:10495000E1FBEFF3108272B6E36A0BB1834216D12A
:104960002B6863606B68A360E062002312F0010FA4
:1049700000D162B6002B43D1236B24499B682046AB
:10498000984700281ADB236B0121DB68CBE7012362
:10499000ECE72378042B36D90DF0BCFBEFF3108342
:1049A00072B6E26A824206BF0025E562012513F075
:1049B000010F00D162B615B16FF0150070BD236B09
:1049C0002946DB68204698470028F7DB236B9B6865
:1049D000AFE7D5B20A2DEFD82378AB42B0D0042B85
:1049E00003D8236B29461B699DE7236B0021DB68F5
:1049F000204698470028F4DAE0E76FF01800DDE77A
:104A00006FF00F00DAE76FF00C00D7E7114A1008DB
:104A100008B50146C06A28B101F10C030122043136
:104A20000DF041FB002008BD30B50378042B89B0A0
:104A300004460D460ED80B4A2B462021684600F04E
:104A400075FA094923464FF4DB72684609F0C5FB45
:104A500009B030BD036B0021DB6898470028EADA13
:104A6000F6E700BF08B7110814B7110810B50846DB
:104A70001446114603F066FA204610BD0846FBF7BF
:104A8000CDBF000018B1034B1860002070476FF0D5
:104A900015007047AC0200200846704700207047A0
:104AA00008B5FDF730FB002803DA00F081F9006853
:104AB000404208BD70B5044645690DF033FB8542A0
:104AC0001ED00DF02FFB63699842054613D004F108
:104AD000080630460DF0F4F9002807DA00F068F90E
:104AE00000680428F5D07D28F3D0404238B901236E
:104AF0006561A36103E0A3690133A361002070BD78
:104B00006FF00A00FBE710B504460DF00BFB2369BC
:104B10005A1E012B22610CD14FF0FF33E360204677
:104B20000DF060FA002803DA00F042F90068404214
:104B300010BD0020FCE72DE9F04104464271C3801E
:104B4000C06A88420D4616461F4606D008B101F0DD
:104B5000BFFB284601F0A2FAE0624FF0010884F89A
:104B600004803B463246294604F11C0008F0ECFD67
:104B7000002803DA02232371BDE8F0814FF0FF33F0
:104B8000002104F10805C4E905314246284600F039
:104B900046F9002805DA00F00BF904232371002000
:104BA000EAE74146284600F06EF9F6E710B5104BEB
:104BB0001B680446DBB90DF0BFF8C0B9FCF780FCF8
:104BC0002379033B012B07D804F11C0008F01CFCDF
:104BD00004F10800FFF764FFE06A08B101F078FB18
:104BE000204601F075FBBDE81040FCF779BC10BD14
:104BF0009413002038B51A4B1B6805461BB16FF0A3
:104C00002504204638BD0DF097F804460028F6D15B
:104C10002B79042BF5D0012B1FD9FCF751FC2B79F4
:104C2000032B14D105F11C0008F0EEFB05F1080080
:104C3000FFF736FF02232B71EB886A79E96A284671
:104C4000FFF779FF041E04DAFCF74AFCD9E7022BD0
:104C5000F2D0FCF745FC0024D3E76FF00A04D0E75C
:104C6000941300202DE9F84F05468B461646FFF7B2
:104C7000C1FF041E15DB2846FFF71CFF041E10DBD6
:104C8000DFF8A890B0465F4605F11C0AB8F1000FA6
:104C90000AD1B7EB0B0240D105F10800FFF733FF53
:104CA00034462046BDE8F88F3B780D2B01D00A2B07
:104CB0000CD1B7EB0B020DD1B8F1010F3B7816D830
:104CC0000A2B4FF0010820D007F1010B013708F142
:104CD000FF38DBE75946504609F05DF8041EEBDA71
:104CE00003232B7105F10800FFF70DFFD9E70D2B0A
:104CF00006D17B780A2BE7D1013708F1FF3804E0B1
:104D00000A2BE1D17B780D2BF6D002224946504682
:104D100009F041F8041ED7DAE2E7594605F11C0014
:104D200009F039F8041EB7DADAE700BF48B711080E
:104D300073B506460C46FFF75DFF00281FDB0D2C00
:104D40001CD03046FFF7B6FE002818DB0A2C0BBF3C
:104D50000C498DF807400222012218BF0DF107010E
:104D600006F11C0009F017F8054606F10800FFF7E8
:104D7000CAFE002DBEBF032333712C46204602B06D
:104D800070BD00BF48B71108F8B5054630200E4683
:104D9000174601F0B5FA044630B13B463246294683
:104DA000FFF7C9FE014B23602046F8BD4CB7110840
:104DB00008B501F033FA08B1143008BD0048FCE72B
:104DC000181B00200346006828B102681A6002B967
:104DD0005A600023036070470A68034600685AB1AE
:104DE00050B14A68824214BF01684B604FF0000224
:104DF0000CBF1A601960026070470D46164608B570
:104E0000044601F021FA31462846A04701F002F895
:104E100012B2034602800020C3E90100704708B5C2
:104E2000034610B1B2F5004F06D3FFF7C1FF1623BA
:104E300003604FF0FF3008BD12B202800020C3E9CA
:104E40000100F8E728B121B103881BB20B600020F4
:104E500070476FF01500704710B5FFF7F3FF041EA1
:104E600005DAFFF7A5FF644204604FF0FF342046E7
:104E700010BD084631B1481E022834BF6FF08900CA
:104E80006FF01500704710B5FFF7F3FF041E05DA49
:104E9000FFF78EFF644204604FF0FF34204610BDE0
:104EA0001F299FBF012303FA01F103680B439ABF37
:104EB000036000206FF01500704708B5FFF7F0FFA2
:104EC000002805DAFFF774FF162303604FF0FF3068
:104ED00008BD1F299FBF012303FA01F103688B431B
:104EE0009ABF036000206FF0150070471F299DBF17
:104EF0000068C84000F001006FF0150070470EB464
:104F000030B588B00BAC014654F8045B02A86FF0D2
:104F1000004201F06BF82246294602A8019400F0F5
:104F20004EF808B0BDE8304003B070470CB400B58F
:104F30000A4689B071B1014602A801F057F80BAAE0
:104F40000A99019202A800F03AF809B05DF804EB62
:104F500002B0704702A801F061F8F0E773B50446AB
:104F60000CF0FCFD00F180050646284600F01AFF13
:104F70002046294600F084FE041E16DD0A232A4638
:104F800001210DF107008DF8073000F08FFD00289A
:104F90000BDD96F8EE305B0704F1010407D5012123
:104FA000284600F0F8FD002801DA4FF0FF340CF03D
:104FB000D5FD803000F014FF204602B070BD07B56B
:104FC000009200220B46114600F004F803B05DF891
:104FD00004FB00002DE9F04F91B00022DDF868A03D
:104FE0000292044693F80090B9F1000F00F030846B
:104FF000B9F1250F0BD001330593029B01330293C6
:105000004946636820469847CDF80CA034E193F8F0
:1050100001909A1CB9F1250F0592EED000273E466B
:10502000B8460A22B8F13F0F4BD8B9F12B0F3DD04B
:1050300014D8B9F1200F3BD0B9F1230F3ED0A9F11C
:105040003003DBB2092B4FD818F4807F12BF02FB6C
:10505000073702FB063648F0800807E0B9F12D0F4C
:1050600029D0B9F1300FEAD148F00108059B13F8B7
:10507000019B0593B9F1000FD4D1A9F14503022B8F
:1050800074D809F1200948F400585FFA89F918F436
:10509000807F08BF0627B9F1650FFBB240F087801B
:1050A0000133DBB248F48048002288E048F002086F
:1050B00048F00408DAE748F00808D7E748F0100895
:1050C000D4E7B8F5007FBAD3B9F17A0F2DD0B9F192
:1050D000740F2AD0B9F16A0F24D128F480681FFA1E
:1050E00088F848F42068C1E7B9F12A0F10D118F404
:1050F000807F5AF8043B02D023EAE377B6E7002B1F
:10510000A7BF48F080081E465E4248F08808ADE719
:10511000B9F12E0FD8D118F4807F40F0998348F46C
:105120008078A3E7B9F16C0F0BD118F4007F14BF9E
:1051300048F4006848F4007828F480681FFA88F87A
:1051400094E7B9F1680F09D118F4806F14BF48F4DF
:10515000006848F4806828F40078EFE7B9F1700F30
:1051600004BF28F4206848F4007886E7A9F16503B5
:10517000022B8CD9B9F1630F00F0CD8109F0DF0368
:10518000532B40F0FD81534653F804AB0393AB4BD4
:10519000BAF1000F08BF9A4618F4807F14BF394651
:1051A0004FF0FF31504600F0E4FF8146BDE1B9F118
:1051B000660F7FF479AF1A4648F400480F230AF1CE
:1051C000070A2AF0070100920D46F5E802010F2BAD
:1051D0000DF1280B28BF0F235A46039500F068FBFA
:1051E0009DF82C3003F00902012A49D018F0020F73
:1051F00049D118F0040F0CBF4FF000094FF02009FF
:1052000013F00C0F4BD0B9F1000F14BF042303238C
:10521000B3420EDA18F0080FA6EB03060AD13746A0
:105220006368202120469847013FF9D1029B33440F
:1052300002930026B9F1000F06D0029B01330293BE
:1052400049466368204698479DF82C307C4F13F000
:10525000080F7C4B18BF1F46029B08F40058A3EBB5
:10526000070909EB070517F8011B79B93746002F25
:1052700040F0E882AB190293DDF80CA0059BB1E683
:105280004FF02D09BCE74FF02B09B9E7B8F1000F3B
:1052900001D02039C9B2636820469847E1E7C3B21C
:1052A0000493694BDDF828A0049A18EA030F19D17A
:1052B000134604335B44049919B113F801193029DA
:1052C00029D01AF1040F2BDB924529DABAF1000F2D
:1052D00048F4004802DB049B9A4524DA049B0AF157
:1052E0000107DF1B0FFA88F3002B1D46BABF2AEA1D
:1052F000EA7301330523B9F1000F00D00133A7B1E0
:105300007A1C1344B342B4BFF61A002618F0090FF2
:105310001DD1324614E00499481EC1B20491CAE777
:10532000049B5F1EDEE70027DCE718F0100F18BFB4
:105330000133E7E72021204606929847069A013A72
:105340006368002AF6D1029B334402931646B9F1F2
:10535000000F06D0029B0133029349466368204642
:10536000984718F0080F0ED1B14604E030212046CE
:10537000984709F1FF396368B9F1000FF6D1029B34
:10538000334402934E46002D2B465FDA10AB534454
:105390002AEAEA72133B914606930499AAEB0903A1
:1053A0008B423EBFC9F10003069911F803B0029B7E
:1053B00009F1FF39C7F1000103F1010328BF4FF0E4
:1053C000300B89451D46636822DA511EFF43974220
:1053D000A8BF0F4618F0100F05D07A1C03D12E215C
:1053E000204698470295BA450BD19DF82D30352BB4
:1053F00021D806D19DF82C3013F0100F08BF4FF0C4
:10540000310B029D636859462046013598472DE7C8
:105410005946204607929847B9F1FF3F079A08D1AD
:10542000029B079202331D462E216368204698474F
:10543000079A0295B1E74FF0310BE2E768B7110820
:1054400060B7110864B7110800C0FFFF9DF82D1068
:1054500031291EBF9DF82C3023F010038DF82C301D
:10546000204663689847002F029D63683FDD2E2128
:105470002046984702354FF001094F45636826DA08
:1054800018F4005F14BF45216521636820469847E2
:10549000BAF1000F04DB34D19DF82C30DB0630D597
:1054A000CAF1000A2D2163682046984750460A2316
:1054B0005A46C11700F0D0F9A0EB0B07FFB207F175
:1054C000FF380235D844B946EFB94D44CEE6049AC8
:1054D0004A4585BF10AA4A44302112F8131C2046C1
:1054E00009F10109984701355FFA89F9C5E718F014
:1054F000100F01D10135C3E72E2120460235984710
:10550000BEE72B21CFE7636818F801192046013F59
:105510009847FFB2D8E752464FF0010952F8043BD2
:1055200003928DF828300DF1280A18F0080F16D1D3
:10553000374604E06368202120469847013FB9457B
:10554000F8D3B145A6EB0903029994BF1A4600228D
:10555000C3F10003114488BF002302911E440AEBEB
:105560000907BA4503D1029B4B441D467EE663689A
:105570001AF8011B20469847002EF2D0013EF0E7B2
:10558000B9F1640F08F4206302D0B9F1690F79D141
:10559000B3F5206F62D10AF1070A2AF00703F3E896
:1055A00002010393002828F4805B71F100032BF0C3
:1055B000100B06DA40424BF4805B61EB41011FFAAD
:1055C0008BFB1BF4807F04D01FB950EA010300F06D
:1055D000C8800DF128080A23424600F03DF9A0EBEF
:1055E00008085FFA88F81BF4807FC14600F0BB8092
:1055F0002BF0010AB8451FFA8AFA80F2B78044F20C
:1056000010020BEA0202102AFBB203D12BF0110A9E
:105610001FFA8AFA1AF0100F00F0B28010AA424462
:1056200012F8192C302A40F0A3802AF4C04A2AF03C
:10563000100A1FFA8AFA1AF0080F40F0B6801AF022
:10564000010F05D0B34280F2AE80F71A4744F3B29F
:10565000029DA3EB050B5FFA8BFB9DE0524618F40D
:10566000007F52F8043B039218464FEAE37199D148
:1056700018F4806F96D018F4006F0CBF18B258B2AF
:10568000C1178FE7B3F5206F1BD10AF1070A2AF083
:105690000703F3E80201039328F0060BB9F1580F52
:1056A0001FFA8BFB47D0A9F16F03DAB2092A4AD857
:1056B000092B48D8DFE803F05327474747471847E7
:1056C00047380AF10403039318F4007FDAF8000066
:1056D00001D00021E0E718F4806FFAD018F4006FD1
:1056E0000CBF80B2C0B2F4E728F0160B1FFA8BFB98
:1056F0000A231BF4807F03D017B950EA010230D08F
:105700000DF1280868E7059B1B78562B0AD1059BED
:105710000133059343681A68099201682046FFF730
:105720004EFCA9E54BF0100B1BF0100F01D04BF411
:10573000804B1023DDE718F0100F01D04BF4C04B65
:105740004FF40473D5E76368204625219847029BF0
:105750000233029349466368204698478CE5082344
:10576000C7E7B8463FE74346DA4653E7434651E7C3
:105770001AF4804F01D1013300E00233DBB25AE763
:1057800041F206021AEA020F3FF455AFF3E76368ED
:1057900020212046013598470BEB0503DBB2B342CD
:1057A000F5DB002605E0474652E7B342029DF8DAF2
:1057B000F61A1AF0100F2CD0636830212046984753
:1057C0001AF4804F1AD10135BA46C24533DCA7EB33
:1057D00008004745B8BF00200544B8F1000F3FF46A
:1057E00074AE08F1FF3310AA52FA83F25FFA83F81D
:1057F00012F8181C636820469847EEE71AF4005F19
:10580000636805F1020514BF5821782120469847A6
:10581000DAE741F206031AEA030FD5D01AF0020FB5
:1058200014BF2B2120211AF4805F636805F1010564
:1058300018BF2D21EAE763683021204698470AF116
:10584000FF3AC2E76368202120469847013F0EE5F2
:10585000029811B0BDE8F08F2DE9F84F13F40079EC
:1058600018BF23F4007307468846164618BF4FF04A
:1058700001091C46DD173846414622462B460BF0EF
:105880002BFE092ABA46C3460746884609DC303251
:10589000AB4508BFA24506F8012BECD23046BDE867
:1058A000F88FB9F1000F01D03732F1E75732EFE747
:1058B0002DE9F74F1D4611F000430E4618BF01F1C8
:1058C0000046009208BF9B464FF000024FF00003D5
:1058D0003146074618BF4FF0010B0BF065FD04463B
:1058E000D8B1009B009A6FF004014BF0020B053316
:1058F000891A3020CA1895420CDC0024009B2B44E6
:1059000000225A71009B284683F804B01C6003B043
:10591000BDE8F08F03F8010BECE73A463346384612
:1059200031460BF073FD10B14BF0080BE6E726F0A3
:105930000044574B4FF0FF32384621460BF066FDCE
:1059400058B92146524B4FF0FF3238460BF040FD1C
:10595000044610B94BF0040BD0E749A3D3E9002368
:10596000384631460BF02AFD00286CD0DFF82CA118
:105970004FF008080F243A4633467AE802010BF04C
:10598000ABFA41A3D3E90023019089460BF016FD41
:1059900028B1012303FA08F3019FE41A4E46B8F137
:1059A0000108E8D20C9B3BB10C9A24EAE473013362
:1059B00013449D42A8BF1D46364B03EBC503D3E9F4
:1059C0000023384631460BF0D1F82FA3D3E900234A
:1059D00006460F460BF006FD40B1304639462E4BC9
:1059E00000220BF0A3FB013406460F463046394631
:1059F0000BF08AFD009BDFF8A880DFF8A89003F188
:105A0000050AC3F1FF2303F57F03FB3306460F4668
:105A10000193019B53449D427FF770AF42464B4632
:105A2000304639460BF058FD00F1300C49464046EF
:105A30000AF801CB16461F460A2200230BF04CFD44
:105A400080468946E5E7DFF860A04FF008080F249C
:105A50003A4633467AE802010BF03EFA08A3D3E94E
:105A60000023019089460BF0BDFC28B1012303FA05
:105A700008F3019F1C444E46B8F10108E8D291E7B3
:105A800000003426F56B0C430080E03779C34143B6
:105A9000FFFFEF7F70B711080000244078B81108AD
:105AA0000080C6A47E8D030030B811082DE9F041B6
:105AB00007460E46154642B9FFF77AF909230360F7
:105AC0004FF0FF342046BDE8F081B2F86C309B0700
:105AD00006D4FFF76DF9092303604FF0FF3418E097
